:020000040800F2
:1000000000040020B9020008BB020008BB0200087F
:10001000BB020008BB020008BB020008BB020008CC
:10002000BB020008BB020008BB020008E10D00088B
:10003000BB020008BB020008BB020008BB020008AC
:10004000BB020008BB020008BB020008BB0200089C
:10005000BB020008BB020008BB020008BB0200088C
:10006000BB020008BB020008BB02000851250008C3
:1000700021250008F1240008C1240008912400086B
:100080006124000831240008BB020008BB020008FC
:10009000BB020008BB020008BB020008BB0200084C
:1000A000BB020008BB020008BB020008BB0200083C
:1000B000811F0008BB020008BB020008BB02000849
:1000C000BB020008BB020008BB020008BB0200081C
:1000D000BB020008BB020008611F0008BB02000849
:1000E000BB020008BB020008BB020008BB020008FC
:1000F000BB020008BB020008BB0200080124000884
:10010000BB020008BB020008BB020008BB020008DB
:10011000411F0008BB020008BB020008BB02000828
:10012000D1230008A12300087123000841230008FF
:1001300011230008BB020008BB020008BB02000834
:10014000BB020008BB020008BB020008BB0200089B
:10015000E1220008B122000881220008BB02000849
:100160005121000851200008BB020008BB02000812
:10017000BB020008BB020008BB020008BB0200086B
:10018000BB020008BB020008BB020008BB0200085B
:10019000BB020008BB020008BB020008BB0200084B
:1001A000BB020008BB020008BB020008BB0200083B
:1001B000BB020008BB020008BB020008BB0200082B
:1001C000BB020008BB020008BB020008BB0200081B
:1001D000BB020008BB020008BB020008BB0200080B
:1001E00072B6274880F30888264880F30988264895
:1001F0004EF60851CEF200010860022080F3148808
:10020000BFF36F8F02F004FA01F0E2FD4FF05530BA
:100210001E491B4A91423CBF41F8040BFAE71C49B6
:10022000184A91423CBF41F8040BFAE719491A4AAF
:100230001A4B9A423EBF51F8040B42F8040BF8E700
:1002400000201749174A91423CBF41F8040BFAE7D6
:1002500002F096F902F0D4F9134C144DAC4203DAD3
:1002600054F8041B8847F9E700F0C2FF104C114D09
:10027000AC4203DA54F8041B8847F9E702F0B8B936
:1002800000040020000800200000000800000020FA
:100290000004002020280008000800200808002092
:1002A00008080020340C0020E0010008E0010008EC
:1002B000E0010008E001000892E700F000F8FEE726
:1002C0002DE9F04FC1F80CD0C3689D46BDE8F08F12
:1002D00000F096FD002383F311882846A0470020F4
:1002E00001F01EFDFEE700F093FD01F041FD00F07E
:1002F00087FD00DFFEE70000844641EA000313F0BB
:1003000003036DD1403A41D351F8043B40F8043B1C
:1003100051F8043B40F8043B51F8043B40F8043BDF
:1003200051F8043B40F8043B51F8043B40F8043BCF
:1003300051F8043B40F8043B51F8043B40F8043BBF
:1003400051F8043B40F8043B51F8043B40F8043BAF
:1003500051F8043B40F8043B51F8043B40F8043B9F
:1003600051F8043B40F8043B51F8043B40F8043B8F
:1003700051F8043B40F8043B51F8043B40F8043B7F
:1003800051F8043B40F8043B403ABDD2303211D31F
:1003900051F8043B40F8043B51F8043B40F8043B5F
:1003A00051F8043B40F8043B51F8043B40F8043B4F
:1003B000103AEDD20C3205D351F8043B40F8043B1F
:1003C000043AF9D2043208D0D2071CBF11F8013B1D
:1003D00000F8013B01D30B8803806046704700BFE3
:1003E000082A13D38B078DD010F003038AD0C3F1F2
:1003F0000403D21ADB071CBF11F8013B00F8013BD4
:1004000080D331F8023B20F8023B7BE7043AD9D392
:10041000013A11F8013B00F8013BF9D20B78037067
:100420004B7843708B788370604670470000000003
:10043000F0B40346124A43F8042B0122002510278A
:1004400000F1740600F10C044360C16400F1640320
:10045000027200F1300100F154024561C0E9034429
:10046000856287630664C0E90822F0BCC0E91133E5
:10047000C0E90C11C06200658261C361C36370474B
:10048000F827000800000000000000000000000045
:10049000F0B4264C0346012220689A40024218BF5D
:1004A000002001D0F0BC7047214D024322602A6B2E
:1004B000204842F4001204EBC304C4E901102A638B
:1004C0000C202A6D1C4900FB03F042F400120E5868
:1004D0002A652A6D326822F01F02084432603268B1
:1004E00012F00102FBD10C2404FB03133D24D97A42
:1004F0005D7A5F684B099B00AC4003F1604301F1FA
:1005000060453C6003F56143012405F5614501F058
:100510001F01326004FA01F150222124746185F830
:100520000023C3F880111960BCE700BFA40B0020B2
:10053000003802400808002094260008000000004F
:10054000024AD36843F0C003D360704700440040C0
:10055000024AD36843F0C003D3607047004C0040A8
:10056000202383F311880D4B5B6813F4006302D1E1
:1005700083F311887047EFF30983203B4FF08072BB
:10058000DA6183F30988064A11689269896892687A
:1005900091428CBF034A044A9A61704700ED00E023
:1005A00070090020E7020008F202000800000000C5
:1005B000084A10B4D2E900344942201A084098424F
:1005C00004D3844202D310BC50607047002010BC9A
:1005D000704700BF800B00200000000000000000FA
:1005E000202383F31188054AD2F898300133C2F8EA
:1005F0009830002383F31188704700BF70090020F2
:100600000D4B42685B6870B48B60D0E90261D0E941
:1006100004459B1BE41845F100059342026888BF1E
:10062000436001319342C0E90445C0E9023170BC26
:1006300038BF0360704700BF001000E000000000FA
:100640000E4A0F4B5268D3F89030816830B4D31AF9
:10065000D0E90445C2685B1A01324168C260E418FF
:100660000268836045F100058B4288BF4360934276
:10067000C0E9044538BF036030BC7047001000E09B
:1006800070090020000000000000000000000000D1
:100690000148FFF7D5BF00BF280A00200000000076
:1006A000014B5B6883607047001000E000000000B1
:1006B0000148FFF7F5BF00BF280A00200000000036
:1006C00010B50146202383F31188FFF7F1FF91F85D
:1006D0002030072B0DD8DFE803F01D0C0C23080495
:1006E0000C084A6A936801339360D1E900321360C1
:1006F0005A604FF0FF34002288680B4B4C6281F83F
:1007000020201B689A688242FBD25A68C1E90032F5
:1007100011605960FFF7BCFF002383F3118810BDFF
:100720004B6A00221A60E4E7700900200000000014
:1007300000228168064B80F820201B689A688A4254
:10074000FBD25A68C0E9003210605860704700BFA1
:100750007009002000000000000000000000000000
:10076000F8B50468A04221D007460D46002604E0F3
:100770000B2A1CD02468A74218D0E3682B43E360FF
:1007800015B123691D42F5D0D4E90103416B90F8FE
:1007900020200B430A2A4363EAD1426A1342E9D07C
:1007A0004662FFF7C5FF2468A742E6D1F8BD426A5A
:1007B00032EA0303DED1F3E700000000000000008E
:1007C000FEE700BF00000000000000000000000085
:1007D0002DE9F84F466FD6F80C903368DA050446D9
:1007E0009DB279D4202383F31188FFF761FF15F0C0
:1007F0002F0F4FD0271D04F10C084FF0000A08E01E
:10080000A806D6F804B01ED4336813F02F0F9DB29B
:1008100040D02B07F4D015F0080F0CBF0021802129
:10082000E80748BF41F02001AA0748BF41F0400156
:100830006B0748BF41F480713846FFF791FFA80667
:10084000D6F804B0E0D5636994F878509BB3D4E946
:100850000832934237D06269591C013205EA0B0B0A
:100860006261216283F800B0D4E907329A4201D371
:10087000A3692362E0688045C6D00368E360C3F8DB
:100880000480C0F824A0FFF753FF336813F02F0F44
:100890009DB2BED1FFF7FCFE002383F3118819F04F
:1008A000800F01D02A063AD419F0400F01D06B0610
:1008B00025D4BDE8F88F04213846FFF751FFD4E96D
:1008C00008329342C7D16269002AC4D04FF48061D4
:1008D0003846FFF745FF97E7202383F31188FFF79A
:1008E000E7FE201D4FF40071FFF73AFF6FF48073AD
:1008F0003360FFF7CDFE002383F3118872E72023D6
:1009000083F31188FFF7D4FED4E911239A422FD044
:10091000FFF7BEFE002383F31188BDE8F88F202384
:1009200083F31188FFF7C4FED4E911239A4204F13E
:1009300030072AD0A26B216C581C0132A263A0643C
:10094000884293F8008001D3E36BA364206B874255
:1009500006D00368236300225F604262FFF7E8FE6F
:10096000C6F80480FFF794FE002383F311889BE709
:10097000A36B002BCCD0201D1021FFF7F1FE4FF60A
:10098000BF7309EA0303F360C2E7A26B002AD1D068
:100990000821201DFFF7E4FE4FF67F7309EA0303E9
:1009A000F360DFE70000000000000000000000002E
:1009B00011F00C0F15D1D0E90C100A68136823F060
:1009C0001F0310B413601368DB07FCD44C7A4A6829
:1009D0003D23A3401360436810BC43F4007343609D
:1009E000704772B6014B024ADA62FEE770090020D6
:1009F00014260008000000000000000000000000B5
:100A000011F00C0F2ED170B5C56A29680B6823F060
:100A10001F030446406B0B600A6812F00102FBD111
:100A20006E7A69683D23B3400B60436823F48053BA
:100A30004360036823F480630360036843F4007336
:100A40000360202383F31188FFF732FEE06918B1B9
:100A5000E2614262FFF76CFEFFF71AFE002383F3A8
:100A6000118870BD72B6024B024ADA62FEE700BF1F
:100A7000700900201426000800000000000000009B
:100A800002F0030C2DE9F04F6646C2F3C105D70909
:100A900000244FF00F094FF001084FF0030E12E051
:100AA000D0F800B003EA0B033343072C03603DD8B2
:100AB000036A23EA020242EA0A020262490833D0C8
:100AC000AD00B6000134CB07F8D5436808FA04F24C
:100AD00023EA02034360826863000EFA03F322EA0A
:100AE00003022A438260D0F80CA004F007022AEA2D
:100AF000030A9200BCF1020FC0F80CA06FEA0303D6
:100B000007FA02FA09FA02F2CAD1072C15D8D0F86E
:100B100020B02BEA020242EA0A0202620268134093
:100B2000334349080360CBD1BDE8F08F436A23EA21
:100B3000020242EA0A024262C0E7D0F824B02BEA7D
:100B4000020242EA0A024262E8E700BF0000000037
:100B5000344A354B4FF080504FF400411064196017
:100B6000136843F00103136013689907FCD5936879
:100B70002C4923F0030393608B6813F00C03FBD123
:100B80000A68284802F0F9020A608B600B6843F497
:100B9000A0230B6003689B03FCD5436F214A43F0FD
:100BA00001034367536F9907FCD5204B53601368CB
:100BB0001D4943F0807313604B685A04FCD5194AF1
:100BC00013689B01FCD51A4B1A4991601A681A4B9D
:100BD0009A421DD0194B40F201721A60174A1368ED
:100BE00003F00F03012BFAD10E4A936843F002037E
:100BF0009360936803F00C03082BFAD1536C43F411
:100C000080435364536E43F480435366536E70477E
:100C10000B4A0C4B12689A42DCD1084B40F201128D
:100C20001A60DBE7003802400070004008204107EE
:100C3000002004E00000883811640020003C0240DD
:100C400000ED00E041C20F41000000000000000084
:100C500000207047000000000000000000000000BD
:100C600038B50E4CA569216885F820000B68236013
:100C700001225C6081F82020D4F89C30A1611344EB
:100C800005F148004831C4F89C30FFF7B9FCA06971
:100C90002946BDE83840FFF713BB00BF70090020AC
:100CA000F0B54B1C87B049D03F4C404FA36905932A
:100CB0002646022956F81C3F05464FF0804038BFB3
:100CC0000221B342426A04975BD0A76AD21B8918FB
:100CD0002ED398681B689A68091A914204D91B6838
:100CE000891A9A688A42FAD35A68029201AF01932C
:100CF00017605F6003919A68511A4FF0FF32996054
:100D000062622846FFF7ACFF049B6BB1E369BB420C
:100D10001BD0DDE901321360019BB3425A6003D05E
:100D20009A6803990A449A60A369586A07B0F0BDAB
:100D30009A689142D1D20F444763CEE71A4CFFF72D
:100D40008FFFA369586A07B0F0BD019BE3610022E1
:100D5000B3425E60049222D09A680398A16A02446A
:100D60004FF080409A60436A581A8242DCD9CB1A0D
:100D70001344012B98BF821C4FF080430A445A63EE
:100D8000D2E78B1801AFA262CDE90166C4E907770B
:100D900003910022436302230261C360B1E74FF075
:100DA0008043DA60C0E700BF70090020C106000878
:100DB00061B1084A10B4926944680346C2E900343C
:100DC0000420226010BC5A60FFF76ABF4FF0FF306A
:100DD000704700BF70090020000000000000000004
:100DE000EFF30983203383F30988002383F3118809
:100DF000704700BF0000000000000000000000007D
:100E00000148FFF71DBC00BF100A002000000000D1
:100E10000148FFF745BC00BF100A00200000000099
:100E20002DE9F84F83468A4691469846202686F358
:100E300011884B4CFFF7ECFF002503221A23676B48
:100E400022702384A560FFF7DBFF85F31188D4E9C6
:100E50000B3211681B68A26A0A60606AC1F80CB0A4
:100E60004FF08042C1F804A01860C3F80C90C3F89A
:100E70000480D2F82480914603E0FFF7C1FF85F398
:100E8000118886F31188FFF7C3FFBB69980702D466
:100E90003B6899052ED5D9F82430A3EB0803B3F5A8
:100EA000FA7FEAD3206B03681A6822F01F021A60E7
:100EB0001A68D207FCD4457AE26A406813683D217B
:100EC000A9400160196821F01F0119601968CF0756
:100ED000FCD4517A52683D238B4013604FF0FF35AC
:100EE00005232370FFF78CFF002383F31188284626
:100EF000BDE8F88F7B681B4A1B48926943F4007376
:100F00007B603B6843F480733B600A21506203209E
:100F1000E261FFF7C5FE054600B3206B0268136867
:100F200023F01F0313601368DE07FCD4427AE16AE2
:100F300040683D2393400A680360136823F01F0351
:100F400013601368D807FCD4487A4A683D2383406D
:100F5000691C13600CBF05230223C2E70223C0E70C
:100F6000080800207009002024080020000000006C
:100F700068B50546202383F31188FFF749FF0D4824
:100F8000D0E900364942751B0D40AA1A9A4209D38E
:100F9000964207D34260FFF733FF002383F31188A3
:100FA000284668BDFFF72CFF0025002383F3118836
:100FB000284668BD800B00200000000000000000F3
:100FC00008B50146202383F31188FFF721FF08208D
:100FD000FFF766FEFFF714FF002383F3118808BDB7
:100FE0002DE9F04F85B0CDE90232C76904464FF0D4
:100FF000200989F31188FFF70BFF8AB3039D0E4682
:101000004FF0000A8846A368D4E904209D428CBFB3
:10101000A6682E46121AB24240D82BD24146A6EB01
:10102000020B0192FFF768F9019AE06808EB0201F0
:101030005A46FFF761F9A368E2689B1B5A44626154
:10104000A3600FB12046B847FFF7DAFE8AF3118894
:10105000AD1BB04489F31188FFF7DAFE002DD2D121
:10106000039DFFF7CDFE002383F31188284605B0CA
:10107000BDE8F08F32464146FFF73EF9E368636111
:10108000A3689B1BA360002EDBD102992046FFF7CB
:101090008FFE0028B7D0039B5D1BE2E73246414636
:1010A000FFF72AF9636933446361E9E70000000050
:1010B0003030FFF795BF00BF0000000000000000C7
:1010C00030304FF0FF33FFF78BBF00BF0000000050
:1010D0002DE9F041202305468846174683F3118801
:1010E000FFF796FE03E0FFF763FE041E1EDBAE680B
:1010F00039462846002EF6D06A69AB68511C013B80
:101100006961AB6082F80080D5E904329A4224BF5D
:10111000EB686B61EB6903B19847FFF771FE002044
:1011200080F3118804462046BDE8F081FFF768FE91
:1011300086F311882046BDE8F08100BF0000000062
:10114000034904484FF0FF330222FFF749BF00BFB5
:1011500020260008700800200000000000000000A9
:1011600070B5041E84B04FF0FF3227DD1D482B21DF
:10117000FFF7AEFF6D461C482A4680FB0431E3179B
:10118000C3EBA10303EB8301A4EB41013031C9B2EE
:101190001CB2134602F8011B002CEED1AA420BD957
:1011A000104E1C4601E014F8011D4FF0FF3230468E
:1011B000FFF78EFFA542F6D104B070BD2D2109487E
:1011C000FFF786FF84EAE471A1EBE4710CB2002C16
:1011D000D0D104484FF0FF32302104B0BDE8704058
:1011E000FFF776BF700800206766666600000000A3
:1011F000254B26481A696FEAC2526FEAD2522DE98E
:1012000080481A611A69C2F308021A614FF0FF346C
:101210001A695A695C61002259695A615969196AE7
:1012200061F080511962196A01F080511962196ADE
:10123000596A5C62596A5A62596A196C41F0805164
:101240001964196E41F080511966196E016841F4F4
:1012500080710160196F01F44071B1F5007F87B0B2
:1012600003D04FF4803119671A670848084942686B
:10127000084B094C22F40072002542600A460D60BA
:1012800003F1C0010CE000BF0038024000700040D4
:10129000A40B0020A02600081060024053F80C4C5C
:1012A00025600C339942556002F10802F6D1CB4F0C
:1012B000DFF89C93CA49CB4ADFF898C3C9F80450B9
:1012C00060234FF0FF384020C1F808804FF0800BBA
:1012D000C9F81450C44EC1F80C80C2F808804FF40D
:1012E0000071C9F81C50C2F80C8087F806334FF41F
:1012F0008072C9F834C0C7F8800138604FF480604C
:1013000087F80733B94CC7F880B1C7F800B087F841
:101310000833C7F880213A6087F80933C7F880118D
:10132000396087F80A334FF40001C7F8800138604C
:1013300009F10C0087F817334FF0010AC9F80C00C7
:10134000C7F88011C9F8100039603046A84987F8FD
:101350002833C7F884217A6089F800A0C9E90B55C1
:10136000FFF766F8A34BA44973672046FFF760F8C0
:10137000A24BA349A34AA4486167DA61A3495D610E
:1013800003F10C02C3E90322C3E90A01C3E90155D1
:10139000C3E9085583F800A0FFF7DAFB9C4B9D4C8E
:1013A0001A6C9D489D49DFF8B0C2DFF8B0E242EA0E
:1013B0000A021A641A6E646042EA0A021A661B6E16
:1013C0008368974AA56043EA0A0383604FF080432D
:1013D00040F67F40986224614FF08050C3F82C8023
:1013E00064619D61C4F824805D63A562DD60556021
:1013F0005D609560C3F814A0C3F800A004F11C035D
:1014000087F81CB3C7F88001E36138608548236220
:10141000854BC2F800E0C1E900C002F10C070020D2
:1014200000212460D760CDE90401CDF8008003F1EC
:101430003C0003F1400803F11001C3E90033C3E9A4
:101440000F0817615561CDE90155784AC4F89050ED
:101450004FF0140A03F1240E03F1280C1C27039506
:101460009D605D61DD621961042503F14401C3F8EB
:1014700018A0C3F824E0C3F828C01F635964DD61D5
:101480005D631A629A636846FFF70AF96846FFF7D8
:10149000D7F8013DF7D1009A654BD4F814C0C4F8D1
:1014A000902080224FF0FF3700200021A263E266E7
:1014B000DFF8ACE1C4F8A0700122C4E9104CC4F814
:1014C000B870C4F848E0C4E92955C4E92F55C4E907
:1014D0001955C4E92C01C4E93201C4F89850C4F884
:1014E0009C50C4F8AC50C4F8C45084F8515084F8EF
:1014F000522003F1280ECCF8103003F12C0CC4E973
:101500001E75C4E916EC6361C4F88050C4F860C06D
:101510002027C4F88450C4E92201A36184F8502034
:10152000E56487F3118862B6424B434AD968DFF815
:1015300034E1DFF834C14FF6FF0001400A43DA60BE
:10154000DEF80C20A06942F08072CEF80C20DCF8A6
:101550000020102142F00102CCF800204830D97759
:1015600083F82270FFF79CF885F3118862B6334A3E
:101570005520134602F1F80103F8010B8B42FBD111
:10158000202383F31188FFF743FC2D492D4865691B
:101590002D4B2E4F50670220A2F8B800C2F89430AD
:1015A00001200023C2F8B07001F12407C2F8A000A6
:1015B000C2F8D40082F8BA00C2E93333C2F8AC50A2
:1015C000C2F8A410C2F8B420C2F8A84093672F61F3
:1015D000C2E939334FF0FF30A56947E000E100E090
:1015E000006002400064024040080020BC08002067
:1015F000410500080044004051050008380900205A
:10160000004C004000380040160001004600010078
:101610000038024070090020002004E0800B002008
:10162000880B002000000220400A0020B1050008BD
:10163000A009002000ED00E00003FA05880A002060
:10164000FC0A0020C1070008D10200087C2600081F
:1016500008080020005C0040380C0020710F0008D2
:1016600054270008F0ED00E0001000E0C2F8E000B0
:10167000C2F8EC30C2F8BC3001F14C00D5F808C01B
:10168000C2F8C0005031C2E9311100200021C2E986
:101690003C016761BCF1000F00F0D181C34982F8C1
:1016A000B83009688B68002BFBD1C2F898104B68E2
:1016B000C2F89C301F604F60FFF7A2FB002383F34A
:1016C0001188202383F31188FFF7A2FB99F80030DB
:1016D000B74AD9F83440C9F80420012B41D1B54D9F
:1016E000B5492B6AB54F43F400032B622B6A23F4F0
:1016F00000032B62286A40F2564240F21643022051
:10170000C9F82820C9F82430FEF7C2FEAC49C9F850
:101710002C000420FEF7BCFE2B6CC9F8300043F40B
:1017200000032B64286ED9F82410D9F82820A54B83
:1017300040F400002866394350203A432D6EC9F822
:10174000241083F848034FF48071C9F828204FF41F
:101750000072C3F88811996083F84903C3F888219F
:101760009A60D9E90B23D9F804101D6817684868F6
:10177000D9F83420DFF88CC204F11003BB60AB60F1
:101780004FF400474FF41065002327602360656025
:1017900055684FF6C0773D400F7A556055686045F3
:1017A00045F02005556000F36A812125864B1562BE
:1017B0004000B3FBF0F3C3F30B03D3610978136864
:1017C00002299BB200F0B281032900F0AC8101290B
:1017D00000F08E811360236843F00103236002232D
:1017E00089F80030FFF70CFB002383F311882023D6
:1017F00083F31188FFF70CFB337A012B11D16D4B6A
:10180000704A196C41F400311964196E41F40031C9
:101810001966C02040211B6E82F82603C2F884118D
:101820005160736F012040F21515402242F22C11D5
:1018300000249D601A6102255861FF22D9601C6056
:1018400019685B6886F878203572FFF7D9FA84F357
:1018500011885E485E4E5F4F40F282320421FFF7EE
:101860000FF95A4840F282320821FFF709F94FF088
:10187000FF33594957480F22FFF7B2FB534840F254
:101880001A224FF48071FFF7FBF8544840F21A22F5
:101890004FF40071FFF7F4F82346224629465048DA
:1018A000FFF7BEFA732104464FF0FF323846FFF7C8
:1018B0000FFC16F8011F0029F6D120B2FFF750FCEB
:1018C000DFF84481FFF73CFC002C40F015814FF419
:1018D0007A70444EDFF834B13E4CFFF771FB374667
:1018E000414D012319463A462846FFF799FA002848
:1018F00040F0D180DFF818A161214FF0FF3220467F
:10190000FFF7E6FB1AF8011F0029F6D1FFF718FCD4
:101910003378DB07E5D5354A536983F48053536147
:1019200041F28830FFF74CFB06233A4601210020A4
:10193000FFF776FA002840F0C58096F801C03178AC
:10194000F578B2787079337941EA0C21ABF8001060
:10195000274942EA05220A80264A274D43EA002306
:10196000138058214FF0FF322046FFF7B1FB15F8E6
:10197000011F0029F6D1BBF90000204DFFF7F0FB55
:10198000FFF7DEFB20214FF0FF322046FFF7A0FBE0
:1019900015F8011F0029F6D1154B194DB3F90000B8
:1019A000FFF7DEFBFFF7CCFB202133E070090020BE
:1019B0006C27000800380240010A000800000306F6
:1019C000B109000800E100E00048E8010000024021
:1019D0002426000870080020842600080008024021
:1019E000040800202C0C002000080020000C0240FD
:1019F0006A0900206C090020682600086C2600088F
:101A000074260008A0860100280C00206809002028
:101A10004C2600084FF0FF322046FFF759FB15F81F
:101A2000011F0029F6D1504BB3F90000FFF798FBD6
:101A3000FFF786FB42F21070FFF7C2FA50E74B4BFC
:101A400085F820C01B6899680029FBD15868D4F834
:101A50009C10C5E9003005605D60012301F1010CB7
:101A600005F14800424982F8B830A761C4F89CC02B
:101A7000FEF7C6FD3F482946FEF722FC1CE63E4D18
:101A8000A8423FF79AAE022F56D0032F61D01D46D1
:101A900040F6FF7357E0D9F80830DFF8F0A0C8F837
:101AA000003045214FF0FF322046FFF711FB1AF8B6
:101AB000011F0029F6D1B8F90000FFF751FBFFF72D
:101AC0003FFB25E7D9F808302C4DC8F800304521F8
:101AD0004FF0FF322046FFF7FBFA15F8011F0029EF
:101AE000F6D1B8F90000FFF73BFBFFF729FB24E72D
:101AF00023F00A039BB26DE6D9F80830204C214D43
:101B0000C8F8003045214FF0FF322846FFF7E0FAD1
:101B100014F8011F0029F6D1B8F90000FFF720FBE7
:101B2000FFF70EFBD3E643F00A0353E623F0080366
:101B30009BB243F002034DE600EB40001D46124B02
:101B4000B3FBF0F39BB22B430A2043F40043106233
:101B500033E6192303FB00F04FF480450A4BB3FB37
:101B6000F0F39BB2EFE700BF6C0900207009002082
:101B7000680B0020200B0020801A06005C2600085D
:101B800034260008700800200048E80140260008BC
:101B90003030FFF79DBA00BF0000000000000000D9
:101BA00030304FF0FF32FFF793BA00BF0000000063
:101BB0002DE9F04F85B0CDE90232C76904464FF0F8
:101BC000200989F31188FFF723F9002A31D0039DFA
:101BD0000E464FF0000A8846A368A16922699D421B
:101BE0008CBFA6682E46521AB24240D82BD240462D
:101BF000A6EB020B0192FEF77FFB019AE16808EB6E
:101C000002005A46FEF778FBA368E2689B1B5A4421
:101C1000A261A3600FB12046B847FFF7F1F88AF33D
:101C20001188AD1BB04489F31188FFF7F1F8002D3E
:101C3000D2D1039DFFF7E4F8002383F311882846EF
:101C400005B0BDE8F08F32464046FEF755FBE3682D
:101C5000A361A3689B1BA360002EDBD102992046E1
:101C6000FFF7A6F80028B7D0039B5D1BE2E73246DA
:101C70004046FEF741FBA3693344A361E9E700BF97
:101C80000C30FFF795BF00BF00000000000000000F
:101C90000C304FF0FF33FFF78BBF00BF0000000098
:101CA000F8B505460F46202383F31188FFF7B0F8F7
:101CB00003E0FFF77DF8041E1CDBAE6839462846BA
:101CC000002EF6D0A969AB6828694A1C013B824204
:101CD000AB60AA6128BFEB680C7828BFAB61EB69E9
:101CE0000BB128469847FFF78BF8002383F3118840
:101CF0002046F8BDFFF784F886F311882046F8BD2A
:101D00000C30FFF7CDBF00BF000000000000000056
:101D10000C304FF0FF31FFF7C3BF00BF00000000E1
:101D200038B50246202383F31188FFF771F80F4B73
:101D30009C69A06A626204F12805A84206D0036883
:101D4000A362FEF7F5FCA06AA842F8D194F822300D
:101D50003BB994F821309B0703D1D4E904321361D5
:101D60005A61BDE838400F20FEF77ABF70090020A5
:101D700038B5144C2168A5690B68236001225C60AA
:101D800081F820200022A86885F82020A16100E0C9
:101D90001B689A689042FBD35868D4F89C2068600E
:101DA0002B604831056001325D6005F14800C4F8E0
:101DB0009C20FEF725FCA0692946BDE83840FEF7C7
:101DC0007FBA00BF70090020000000000000000082
:101DD000464A47491369DFF850C14648F0B540F21A
:101DE000FF16334313611369434DDFF840E1434C61
:101DF000434F23F4FF7323F0010313611369136B43
:101E000033431363136D334313656FF4A846002304
:101E1000126D4B604FF6FF728E603A4EC1F80CC0E7
:101E20004A61DFF80CC1C1F820E04E624FF4107631
:101E3000C1F800C06E604FF0FF31DFF8F8C0A96054
:101E40004FF08066C5F80CC06A614FF0400C2E62FE
:101E50002D4EC5F824C02E6005F1A25505F5443578
:101E600005F5AA756360A160E5604FF0C045626149
:101E70002562264D6562264D2560264C43608160B3
:101E8000C46040F6FF744461234C0362234E4362F6
:101E9000234D0460234C7B6000F5A050B960FB60CB
:101EA0007A613B627B62C7F800C07360B160F36027
:101EB00072613362736233606B60A960EB606A6168
:101EC0002B626B622B606360A160E36062612362DE
:101ED000636223604360BDE8F0408160C36042619B
:101EE000036243620360FEF733BE00BF0038024066
:101EF00000000240000C02400004024000080240C2
:101F00000010024000AA0A00802008000006060017
:101F10000180200255505500000100550014024078
:101F200000180240001C02405400014000005655B9
:101F300000AAA02A1545515500000000000000002D
:101F400008B5FEF74DFB0348FEF742FCBDE808402C
:101F5000FEF706BBBC0800200000000000000000E7
:101F600008B5FEF73DFB0348FEF732FCBDE808402C
:101F7000FEF7F6BA40080020000000000000000054
:101F80002DE9F84F4FF08045FEF72AFB2B69EA68F0
:101F90001340DAB2D2439B072A6103D4BDE8F84F5D
:101FA000FEF7DEBA202383F31188264EFEF780FB6E
:101FB000F469686AB36AA268A0EB03094A4506F1AE
:101FC0001C0A98BF002725D84FF0200800E0B36A0C
:101FD0002168D4F80CB013445145B362C1F804A091
:101FE000F161E76008BFEF60A9EB0209FEF750FB63
:101FF00087F311882069D84788F31188FEF758FBCA
:10200000F469A2689145E2D2686AB36AA0EB030959
:102010009145D9D254450BD0A268B062121A13442C
:102020004FF08042022B2CBFC0180230A3605063D7
:10203000FEF72EFB002383F31188BDE8F84FFEF76F
:102040008FBA00BF700900200000000000000000EF
:102050003B49F8B54B6B5C69FEF7C2FAD1E90C500D
:1020600004F45F422B68D24342611A6822F01F02D7
:102070001A60A2B21E68F607FCD495F809C0CE6AB1
:102080006F6835683D2303FA0CF33B602B6823F03F
:102090001F032B602B6813F00103FBD1777A76685E
:1020A0003D25BD403560D70541BF456925F48075A4
:1020B0000123456196058B6044BF43F002038B60AA
:1020C00055050AD5456825F400754560056843F057
:1020D000040345F4007505608B60170544BF43F0A9
:1020E00008038B60560444BF43F020038B60D50483
:1020F0001ED543F0100320048B6002D543F040034B
:102100008B60202383F31188FEF7D2FAC86930B1BF
:102110006FF0010343620023CB61FEF709FBFEF77A
:10212000B7FA002383F31188BDE8F840FEF718BA28
:102130002204E3D4002BE4D1BDE8F840FEF710BA46
:10214000080800200000000000000000000000005F
:1021500038B54849FEF744FA4C6B474AA3696569AC
:1021600045EA034323F07F43934266D033D8073ACE
:10217000934224D0013293421ED16268CB6A22F48A
:1021800000721B6862601A6842F001021A6062689D
:1021900042F4805262605B68012B49D915F00A0F46
:1021A00018BFA369EB0503D5636923F480736361EA
:1021B000BDE83840FEF7D4B9B3F1011FEED10B8C66
:1021C0001A0A3DD002F0060203F00103134343F064
:1021D000F0032361E2E7294A934239D00232934265
:1021E000DCD1CB6A22691B685A6842B10A8C236829
:1021F00042F0010243F4A0630A842360D8E76368D5
:1022000023F400736360236843F400732360202386
:1022100083F31188FEF74CFAC86918B14262CA61AB
:10222000FEF786FAFEF734FA002383F31188B5E748
:10223000236823F480632360B0E70B8CC3F3470368
:10224000236115F00A0F18BFA369EB05B0D5ABE702
:1022500063680A6B23F4007312686360136843F0C9
:102260000103136015F00A0F18BFA369EB059FD592
:102270009AE700BF0808002008000300820007005A
:1022800010B5FEF7ADF9084B08485968C26F890DC3
:1022900001F03D018C05DC6012B1D0F88000904760
:1022A000BDE81040FEF75CB900640240A40B0020BA
:1022B00010B5FEF795F9084B08485968426F090CAC
:1022C00001F03D010C04DC600AB1806F9047BDE86D
:1022D0001040FEF745B900BF00640240A40B002087
:1022E00010B5FEF77DF9084B08485968C26E890998
:1022F00001F03D018C01DC600AB1006F9047BDE840
:102300001040FEF72DB900BF00640240A40B00206E
:1023100008B5FEF765F9074B07485968426E01F0AA
:102320003D01D9600AB1806E9047BDE80840FEF7D4
:1023300017B900BF00640240A40B00200000000099
:1023400010B5FEF74DF9084B08481968C26D890DA4
:1023500001F03D018C059C600AB1006E9047BDE81C
:102360001040FEF7FDB800BF00640240A40B00203F
:1023700010B5FEF735F9084B08481968426D090C8D
:1023800001F03D010C049C600AB1806D9047BDE8EE
:102390001040FEF7E5B800BF00640240A40B002027
:1023A00010B5FEF71DF9084B08481968C26C890979
:1023B00001F03D018C019C600AB1006D9047BDE8C1
:1023C0001040FEF7CDB800BF00640240A40B00200F
:1023D00008B5FEF705F9074B07481968426C01F08C
:1023E0003D0199600AB1806C9047BDE80840FEF756
:1023F000B7B800BF00640240A40B0020000000003A
:1024000010B5FEF7EDF8084B08485968C26B890D06
:1024100001F03D018C05DC600AB1006C9047BDE81D
:102420001040FEF79DB800BF00600240A40B0020E2
:1024300010B5FEF7D5F8084B08485968426B090CEF
:1024400001F03D010C04DC600AB1806B9047BDE8EF
:102450001040FEF785B800BF00600240A40B0020CA
:1024600010B5FEF7BDF8084B08485968C26A8909DB
:1024700001F03D018C01DC600AB1006B9047BDE8C2
:102480001040FEF76DB800BF00600240A40B0020B2
:1024900008B5FEF7A5F8074B07485968426A01F0EE
:1024A0003D01D9600AB1806A9047BDE80840FEF757
:1024B00057B800BF00600240A40B002000000000DD
:1024C00010B5FEF78DF8084B08481968C269890DE8
:1024D00001F03D018C059C600AB1006A9047BDE89F
:1024E0001040FEF73DB800BF00600240A40B002082
:1024F00010B5FEF775F8084B084819684269090CD1
:1025000001F03D010C049C600AB180699047BDE870
:102510001040FEF725B800BF00600240A40B002069
:1025200010B5FEF75DF8084B08481968C2688909BC
:1025300001F03D018C019C600AB100699047BDE843
:102540001040FEF70DB800BF00600240A40B002051
:1025500008B5FEF745F8074B07481968426801F0CF
:102560003D0199600AB180689047BDE80840FDF7D9
:10257000F7BF00BF00600240A40B00200000000075
:10258000F0B4144F144D1548154B164907F1700C53
:102590000026984211D904391A4651F8044F42F8DE
:1025A000044B9042F9D8421ED21A22F003020432A0
:1025B00013449D4203D943F8046B9D42FBD8674501
:1025C00005D0D7E90413D7E906051037E1E7F0BCD9
:1025D000704700BF78270008340C0020340C00201E
:1025E000340C002028280008000000000000000033
:1025F000FEE700BF00000000000000000000000037
:10260000704700BF00000000000000000000000054
:04261000704700BF50
:10261400444D41206661696C757265000D0A0000C5
:1026240073746174757331202620323A00000000FF
:102634004572726F72733A20000000004572726F27
:102644007273313A20000000616C6C20697320635E
:102654006C656172210000004572726F7273323AC8
:1026640020000000583A200020593A2000000000C1
:10267400205A3A200000000069646C6500000000E4
:102684005772697465206120537472696E670A0019
:1026940010600240086002400000000B2860024005
:1026A400086002400006010C4060024008600240DD
:1026B4000010020D58600240086002400016030E2C
:1026C400706002400C6002400000040F8860024009
:1026D4000C60024000060510A06002400C6002403D
:1026E40000100611B86002400C6002400016072F6B
:1026F4001064024008640240000008382864024064
:10270400086402400006093940640240086402403B
:1027140000100A3A586402400864024000160B3B59
:10272400706402400C64024000000C3C8864024067
:102734000C64024000060D44A06402400C64024094
:1027440000100E45B86402400C64024000160F46A7
:102754006D61696E00164130040460080C10141891
:102764001C2021220000000001000000801A060045
:102774000200000028280008340C0020340C00203B
:10278400340C00202828000800000020000000204D
:10279400000000202828000800C0012000C00120FB
:1027A40000C00120282800080000000000000000EC
:1027B400000000002828000800000010000000109D
:1027C4000000001028280008004002400040024099
:1027D400004002402828000800000000000000001B
:1027E400000000002828000800000000000000008D
:1027F4000000000000000000C1100008911C000847
:10280400A11B0008111D0008911B0008011D0008F0
:0C281400B1100008811C0008510C0008E5
:08282000060000000B0100009E
:04000005080002B934
:00000001FF
