:020000040800F2
:1000000000040020B9020008BB020008BB0200087F
:10001000BB020008BB020008BB020008BB020008CC
:10002000BB020008BB020008BB02000881110008E7
:10003000BB020008BB020008BB020008BB020008AC
:10004000BB020008BB020008BB020008BB0200089C
:10005000BB020008BB020008BB020008BB0200088C
:10006000BB020008BB020008BB020008D133000835
:10007000913300085133000811330008D1320008D1
:100080009132000851320008BB020008BB02000890
:10009000BB020008BB020008BB020008BB0200084C
:1000A000BB020008BB020008BB020008BB0200083C
:1000B000B12C0008BB020008BB020008BB0200080C
:1000C000BB020008BB020008BB020008BB0200081C
:1000D000BB020008BB020008912C0008BB0200080C
:1000E000BB020008BB020008BB020008BB020008FC
:1000F000BB020008BB020008BB0200081132000866
:10010000BB020008BB020008BB020008BB020008DB
:10011000712C0008BB020008BB020008BB020008EB
:10012000D131000891310008513100081131000827
:10013000D1300008BB020008BB020008BB02000867
:10014000BB020008BB020008BB020008BB0200089B
:10015000913000085130000811300008BB0200083F
:10016000D12E0008C12D0008BB020008BB02000808
:10017000BB020008BB020008BB020008BB0200086B
:10018000BB020008BB020008BB020008BB0200085B
:10019000BB020008BB020008BB020008BB0200084B
:1001A000BB020008BB020008BB020008BB0200083B
:1001B000BB020008BB020008BB020008BB0200082B
:1001C000BB020008BB020008BB020008BB0200081B
:1001D000BB020008BB020008BB020008BB0200080B
:1001E00072B6274880F30888264880F30988264895
:1001F0004EF60851CEF200010860022080F3148808
:10020000BFF36F8F03F04CF902F0FAFB4FF055305B
:100210001E491B4A91423CBF41F8040BFAE71C49B6
:10022000184A91423CBF41F8040BFAE719491A4AAF
:100230001A4B9A423EBF51F8040B42F8040BF8E700
:1002400000201749174A91423CBF41F8040BFAE7D6
:1002500003F0DEF803F01CF9134C144DAC4203DA42
:1002600054F8041B8847F9E701F06AFC104C114D63
:10027000AC4203DA54F8041B8847F9E703F000B9ED
:1002800000040020000800200000000800000020FA
:1002900000040020003900080008002008080020A1
:1002A000080800202C0C0020E0010008E0010008F4
:1002B000E0010008E001000892E700F000F8FEE726
:1002C0002DE9F04FC1F80CD0C3689D46BDE8F08F12
:1002D00000F0A6FF00F064FF002383F31188284696
:1002E000A047002001F09CFAFEE700F061FF00F05B
:1002F000C7FF00F065FF00F093FF00F051FF00DF43
:10030000FEE70000844641EA000313F003036DD1C9
:10031000403A41D351F8043B40F8043B51F8043BC8
:1003200040F8043B51F8043B40F8043B51F8043BCF
:1003300040F8043B51F8043B40F8043B51F8043BBF
:1003400040F8043B51F8043B40F8043B51F8043BAF
:1003500040F8043B51F8043B40F8043B51F8043B9F
:1003600040F8043B51F8043B40F8043B51F8043B8F
:1003700040F8043B51F8043B40F8043B51F8043B7F
:1003800040F8043B51F8043B40F8043B51F8043B6F
:1003900040F8043B403ABDD2303211D351F8043B0F
:1003A00040F8043B51F8043B40F8043B51F8043B4F
:1003B00040F8043B51F8043B40F8043B103AEDD2BE
:1003C0000C3205D351F8043B40F8043B043AF9D20F
:1003D000043208D0D2071CBF11F8013B00F8013BE2
:1003E00001D30B8803806046704700BF082A13D3EF
:1003F0008B078DD010F003038AD0C3F10403D21A07
:10040000DB071CBF11F8013B00F8013B80D331F83A
:10041000023B20F8023B7BE7043AD9D3013A11F8BA
:10042000013B00F8013BF9D20B7803704B78437025
:100430008B78837060467047000000000000000069
:10044000F0B40346124A43F8042B0122002510277A
:1004500000F1740600F10C044360C16400F1640310
:10046000027200F1300100F154024561C0E9034419
:10047000856287630664C0E90822F0BCC0E91133D5
:10048000C0E90C11C06200658261C361C36370473B
:10049000D838000800000000000000000000000044
:1004A000F0B4274C0346012220689A40024218BF4C
:1004B000002001D0F0BC7047224D024322602A6B1D
:1004C000214804EBC30442F40012C4E901102A637A
:1004D0002A6D1E4903EB430042F4001251F82060DC
:1004E0002A652A6D326822F01F0201EB800032601B
:1004F0005C00326812F00102FBD1234401EB83035C
:100500003D24D97A5D7A5F684B099B00AC4003F1CA
:10051000604301F160453C6003F56143012405F54A
:10052000614501F01F01326004FA01F150222124DB
:10053000746185F80023C3F880111960BAE700BF21
:10054000A40B00200038024008080020743700087F
:10055000024AD36843F0C003D360704700440040B0
:10056000024AD36843F0C003D3607047004C004098
:10057000202383F311880D4B5B6813F4006302D1D1
:1005800083F311887047EFF30983203B4FF08072AB
:10059000DA6183F30988064A11689269896892686A
:1005A00091428CBF034A044A9A61704700ED00E013
:1005B00068090020EB020008FE02000800000000AD
:1005C000202383F31188054AD2F8A0300133C2F802
:1005D000A030002383F31188704700BF6809002012
:1005E0000D4B42685B6870B48B60D0E90261D0E962
:1005F00004459B1BE41845F100059342026888BF3F
:10060000436001319342C0E90445C0E9023170BC46
:1006100038BF0360704700BF001000E0000000001A
:100620000E4A0F4B5268D3F89830816830B4D31A11
:10063000D0E90445C2685B1A01324168C260E4181F
:100640000268836045F100058B4288BF4360934296
:10065000C0E9044538BF036030BC7047001000E0BB
:1006600068090020000000000000000000000000F9
:100670000148FFF7D5BF00BF280A00200000000096
:10068000014B5B6883607047001000E000000000D1
:100690000148FFF7F5BF00BF280A00200000000056
:1006A000054B1A6B1AB95A6B002A00DD704772B6F7
:1006B000024ADA62FEE700BF68090020A43400089D
:1006C000054B1A6B002A03DB5A6B002A00DD7047CA
:1006D00072B6024ADA62FEE768090020AC3400080C
:1006E000F8B51546FFF7ECFF79B14B1E0B400CD166
:1006F000094ED6E900474942381A0840451BAC422A
:1007000008D8AF4206D37560F8BD72B6034B044AF1
:10071000DA62FEE71846F8BD800B00206809002069
:100720000C3600080000000000000000000000007F
:100730000022FFF7D5BF00BF00000000000000004E
:1007400008B5FFF7BDFFC0B190F8203083B10F2B83
:100750000ED0002281680B4B80F820201B689A681D
:100760008A42FBD85A68C0E900321060586008BD60
:1007700072B6044B044ADA62FEE772B6014B024AD3
:10078000DA62FEE768090020F83500080000000082
:1007900008B5FFF795FFC0B190F8203083B10F2B5B
:1007A0000ED0002281680B4B80F820201B689A68CD
:1007B0008A42FBD25A68C0E900321060586008BD16
:1007C00072B6044B044ADA62FEE772B6014B024A83
:1007D000DA62FEE768090020D43500080000000056
:1007E0000368984210D01A680260506093F8202085
:1007F000042A04D100225A621846FFF7C9BF72B614
:10080000024B034ADA62FEE7704700BF6809002026
:10081000A8350008000000000000000000000000F3
:10082000F8B5FFF74DFF0468A0421AD006460D4602
:100830000027E3682B43E36015B123691D420DD007
:10084000D4E90101FFF73CFFD8B1436B90F82020B9
:100850000B430A2A436305D00B2A0AD02468A64218
:10086000E7D1F8BD426A1342F8D04762FFF790FF24
:10087000F4E7426A32EA0303F0D14762FFF788FFE8
:10088000ECE772B6014B024ADA62FEE76809002023
:1008900060360008000000000000000000000000BA
:1008A000036873B193F82020032A05D10022026067
:1008B00018465962FFF76CBF72B6024B024ADA6201
:1008C000FEE7704768090020A43600080000000019
:1008D000202383F31188074B1A6B002A01DD596B23
:1008E00019B172B6044ADA62FEE7013A1A6381F37B
:1008F0001188704768090020B43400080000000027
:10090000202383F31188074B1A6B002A01DB596BF4
:1009100019B172B6044ADA62FEE701321A6381F352
:100920001188704768090020BC34000800000000EE
:10093000064B1A6B002A05DD5A6B002A02DD0022E5
:100940005A63704772B6024ADA62FEE7680900200D
:10095000C434000800000000000000000000000097
:10096000064B1A6B002A01DD5A6B1AB172B6044AA3
:10097000DA62FEE701225A63704700BF680900206F
:10098000CC3400080000000000000000000000005F
:1009900008B50146202383F31188FFF779FEFFF79E
:1009A000DFFF91F82030072B0FD8DFE803F0140E9B
:1009B0000E1C0A040E0A486AFFF782FE83680133A0
:1009C0008360D1E9003213605A604FF0FF334B620D
:1009D0000846FFF7DDFEFFF7ABFFFFF749FE0023F8
:1009E00083F3118808BD4B6A00221A60EDE700BF4F
:1009F000FEE700BF00000000000000000000000053
:100A00002DE9F047466FD6F80C803368DF050546C0
:100A10009CB279D4202383F31188FFF739FEFFF7C6
:100A20009FFF14F02F0F49D02F1D05F10C0908E08E
:100A3000A306D6F804A01ED4336813F02F0F9CB27F
:100A40003CD02007F4D014F0080F0CBF0021802107
:100A5000E20748BF41F02001A30748BF41F0400131
:100A6000600748BF41F480713846FFF7D9FEA306FE
:100A7000D6F804A0E0D5FFF723FE6B6995F878401F
:100A80007BB3FFF71DFED5E90832934233D06A6984
:100A9000591C013204EA0A0A6A61296283F800A03B
:100AA000D5E907329A4201D3AB692B624846FFF77A
:100AB00097FE336813F02F0F9CB2C2D1FFF738FFB7
:100AC000FFF7D6FD002383F3118818F0800F01D0C3
:100AD000210630D418F0400F01D0620653D4BDE88F
:100AE000F08704213846FFF79BFEFFF7E9FDD5E9C3
:100AF00008329342CBD16A69002AC8D04FF4806192
:100B00003846FFF78DFE97E7202383F31188FFF720
:100B1000BFFDFFF725FF281D4FF40071FFF780FE92
:100B20006FF480733360FFF703FFFFF7A1FD00232D
:100B300083F311886EE7202383F31188FFF7A8FD64
:100B4000FFF70EFFFFF7BCFDD5E911239A422ED027
:100B5000AA6B296C581C0132AA63A86488421F78CA
:100B600001D3EB6BAB6405F13000FFF739FE776022
:100B7000FFF7DEFEFFF77CFD002383F3118818F0FA
:100B8000400FACD0A9E7202383F31188FFF780FD45
:100B9000FFF7E6FED5E911239A4215D0FFF7C8FE0C
:100BA000FFF766FD002383F31188BDE8F087AA6B89
:100BB000002ACDD00821281DFFF732FE4FF67F73A3
:100BC00008EA0303F360D3E7AB6B002BE6D0281DE4
:100BD0001021FFF725FE4FF6BF7308EA0303F36009
:100BE000DCE700BF00000000000000000000000083
:100BF00011F00C0F15D1D0E90C100A68136823F01E
:100C00001F0310B413601368DB07FCD44C7A4A68E6
:100C10003D23A3401360436810BC43F4007343605A
:100C2000704772B6014B024ADA62FEE7680900209B
:100C3000D4340008000000000000000000000000A4
:100C400011F00C0F30D170B50546C06A6A6B0368AD
:100C5000196821F01F0119601C6814F00104FBD110
:100C6000467A41683D23B3400B60536823F48053B8
:100C70005360136823F480631360136843F40073B4
:100C80001360202383F31188FFF702FDFFF768FE4E
:100C9000214605F11C00FFF703FEFFF749FEFFF7B1
:100CA000E7FC84F3118870BD72B6024B024ADA6227
:100CB000FEE700BF68090020D434000800000000EF
:100CC0002DE9F04F02F003084746C2F38006C2F355
:100CD000C1054FEAD21C00244FF00F0B4FF0010A60
:100CE00013E0D0F8009003EA09033B43072C0360AC
:100CF00041D8036A23EA020242EA0E02026249086C
:100D000037D07600AD00BF000134CB07F7D543687C
:100D10000AFA04F223EA02033343436082684FF085
:100D2000030E63000EFA03F322EA03022A438260F1
:100D3000D0F80CE004F007022EEA030E9200B8F19E
:100D4000020FC0F80CE06FEA03030CFA02FE0BFA84
:100D500002F2C6D1072C15D8D0F8209029EA020259
:100D600042EA0E020262026813403B4349080360F4
:100D7000C7D1BDE8F08F436A23EA020242EA0E02BD
:100D80004262BCE7D0F8249029EA020242EA0E024D
:100D90004262E8E7000000000000000000000000E0
:100DA00000283AD070B41F4D837A2C68012101FAD3
:100DB00003F31C422CD0C27A1B4E500924EA0303D1
:100DC000203002F01F043244A14013F0FF0F4FF017
:100DD000000446F8201082F800432B6009D1134A22
:100DE000116B21F400111163116D21F400111165D3
:100DF000126D13F47F4F09D10C4B1A6B22F4800251
:100E00001A631A6D22F480021A651B6D70BC70475C
:100E100072B6074B074ADA62FEE772B6044B054A20
:100E2000DA62FEE7A40B002000E100E00038024097
:100E3000680900204437000800000000000000009E
:100E400080B151B1012901D000207047002AFBD0A8
:100E500072B6074B074ADA62FEE772B6044B054AE0
:100E6000DA62FEE772B6024B024ADA62FEE700BFC0
:100E7000680900202437000800000000000000007E
:100E80004FF08043DA68920701D55863704772B615
:100E9000014B024ADA62FEE768090020E0360008EA
:100EA00038B5144CFFF7FCFBA569216885F82000D4
:100EB0000B68236001225C6081F82020D4F8A43004
:100EC000A1611344483105F14800C4F8A430FFF78C
:100ED00087FBEFF30983EA69243B9A4205D8A069AE
:100EE0002946BDE83840FFF7EBB972B6024BE36222
:100EF000FEE700BF68090020E034000800000000A1
:100F0000F8B50446FFF7CCFB344E8068B56958B39A
:100F1000AA688368934207D290F820308260062B3B
:100F200044D0072B2FD023B3234603E09968AA6847
:100F3000914202D31B689C42F8D15A680620C5E949
:100F4000003215605D606C62FFF7AAFFA368AB42D8
:100F500003D072B6224BF362FEE7AB6BA34207D01D
:100F600072B61F4BF362FEE7AB6BC4E90253AC638E
:100F7000F8BDD0E90032012180F8201013605A60DA
:100F8000FFF706FCD0E7D0E90031476A0B605960F3
:100F90003B4602E099688A4202D81B689F42F9D119
:100FA0005A68C0E9003210605860BDE7D0E90031EE
:100FB000476A0B6059603B4602E099688A4202D852
:100FC0001B689F42F9D15A68C0E90032106058602E
:100FD000B868AA68836893429ED3A5E76809002091
:100FE000EC350008000000000000000000000000D8
:100FF0002DE9F04186B00546FFF752FB4B1C50D05F
:10100000FFF75EFB002947D04B4E4C48B369059370
:101010003746022957F81C4F4FF0804238BF022153
:10102000BC42536A04906DD0B06A1B1AC91840D2F2
:10103000A368994261D399420DF1040806D9444549
:101040003CD02468C91AA3689942F8D86368CDE9EE
:101050000143C3F80080C4F804800391A368591ABF
:101060004FF0FF33A16073622846FFF719FFFFF7C7
:1010700027FB049BC3B1FFF723FBF369434521D052
:10108000DDE901321360019BBB425A600CD09A68C3
:1010900003990A449A6007E072B6274B284ADA623D
:1010A000FEE7FFF7FDFE244EB369586A06B0BDE8BF
:1010B000F081A2682468891AA368BCE772B6204B45
:1010C000F362FEE7019BF3610022BB425F60049282
:1010D0002ED09A680399B06A0A444FF080419A6012
:1010E0004B6A191A8A42DFD9C31A1344012B98BFDD
:1010F0008A1C1044FFF7C4FED6E70844FFF7C0FE81
:10110000A36898E7B3620391D06801940DF10408D5
:1011100010F00200C6E90788029405D119440223A1
:1011200051631061D3609FE772B6064BF362FEE72E
:101130004FF08043DA60B7E76809002091090008A2
:10114000E0350008C4360008000000000000000080
:1011500061B1084A10B4926944680346C2E9003498
:101160000420226010BC5A60FFF742BF4FF0FF30EE
:10117000704700BF68090020000000000000000068
:10118000EFF30983203383F30988002383F3118865
:10119000704700BF000000000000000000000000D9
:1011A0000148FFF73DBA00BF100A00200000000010
:1011B0000148FFF765BA00BF100A002000000000D8
:1011C00038B5134C2368A0691A6822600121546065
:1011D00083F82010A361FFF7B3FAD4F8A430A16913
:1011E0000133054648314830C4F8A430FFF7F8F918
:1011F000EFF30983EA69243B9A4205D8A06929469E
:10120000BDE83840FFF75CB872B6024BE362FEE718
:1012100068090020E0340008000000000000000021
:10122000054B1A6B22B9596B002901DD5A637047CF
:1012300072B6024ADA62FEE768090020F03400085C
:1012400008B5FFF7EDFFFFF7ABFF084B1A689A42AE
:1012500004D0996992688968914203D3002383F38B
:10126000118808BD72B6024ADA62FEE768090020FA
:101270006C350008000000000000000000000000C5
:10128000054BD3E90C120A4302D101225A6370477D
:1012900072B6024ADA62FEE768090020F8340008F4
:1012A0002DE9F041A44C23785A1E012A01D9052BBF
:1012B00069D1202383F31188FFF77AFFFFF7E0FF5E
:1012C00022789E4B656B6360012A61D0D4E90B12D2
:1012D0000E6811689A4805F11002B2608A604FF4F6
:1012E000004600214FF410622E6029606A606A682F
:1012F0004FF6C0710A406A606A6842F02A026A606A
:1013000002212A468E1E012E00F2DD80022900F005
:10131000FF808C4E00EB800000EB8000B6FBF0F10C
:1013200000FB1160002840F0028141F4804189B245
:101330000D2041F400411062D1611978136802292F
:101340009BB200F0D680032900F0D080012900F084
:10135000C98013602B6843F001032B6002232370C4
:10136000FFF75EFFFFF71CFF774B1A689A4205D024
:101370009969926889689142C0F0C180002383F323
:101380001188BDE8F08172B66F4B704ADA62FEE7F1
:101390006F4E336A43F400033362336A23F400036D
:1013A000336240F2564240F21643C4E90932FFF775
:1013B00087F96849336A0220FFF772F8E062002873
:1013C0007CD0FFF77DF964490420FFF769F82063BA
:1013D000002800F08280376C6368604A604947F4F7
:1013E00000073764376E47F400073766366E4FF0F4
:1013F000500C4FF4807682F848C3C2F8886196603A
:1014000082F849C34FF40076C2F888619660E26AB8
:101410005E68D2F80080626AD0F800E0DFF850C160
:1014200042EA0107A26A1143C4E9097105F11000FB
:10143000197A626BC8F80800CEF808004FF4004E25
:10144000C5F800E0771E4FF0000EC5F800E06745D4
:101450004FF4106E3046C5F804E004D972B63A4B2A
:10146000404ADA62FEE75768DFF808C14FF6C07EEF
:1014700007EA0E0757605768664547F02A07576026
:101480003FF740AF012904D072B62F4B354ADA62DC
:10149000FEE72C487600B0FBF6F106FB1106BEB95C
:1014A00089B203292FD92B20B1F5805F1062FFF498
:1014B00043AF72B6244B2B4ADA62FEE772B6224B78
:1014C000294ADA62FEE772B61F4B264ADA62FEE765
:1014D00072B61D4B234ADA62FEE772B61A4B224AF5
:1014E000DA62FEE723F00A039BB232E743F00A0315
:1014F0002FE723F008039BB243F0020329E772B6FB
:101500001A4ADA62FEE772B60F4B164ADA62FEE753
:101510000C4E00EB4000B6FBF0F100FB1160002820
:101520003FF405AF72B6084B0E4ADA62FEE772B6B8
:10153000054B0C4ADA62FEE7080800204C38000828
:10154000801A060080DE800268090020D436000878
:1015500000380240410C0008F10B000800E100E0F7
:1015600000000306F4360008343700084835000848
:101570007F1A0600A08601000000000000000000A5
:101580002DE9F84F554D564C6F6B1A2300262B84CE
:10159000804689469346AE60FFF742FEFFF700FEA5
:1015A0002368A34204D0A2699B6892689A423CD304
:1015B000002686F31188D5E90B3211681B68AA6AE8
:1015C0000A606A6AC1F80C804FF08048C1F8049044
:1015D0001A60DE605E60D8F824A04FF0200989F31D
:1015E0001188FFF7E5FDFFF74BFEBB699A0702D4B0
:1015F0003B689B053DD5D8F82430A3EB0A03B3F52F
:10160000FA7F16D2FFF70CFEFFF7CAFD2368A3424C
:1016100004D0A2699B6892689A4202D386F311882B
:10162000DDE772B62F4BE362FEE772B62D4BE36245
:10163000FEE7286B0268136823F01F03136013682A
:10164000DC07FCD4E96A447A40680A683D23A34079
:101650000360136823F01F0313601368D807FCD4DA
:10166000487A4A683D23834013604FF0FF30BDE85D
:10167000F88F7B68EA6943F400737B603B6843F44E
:1016800080733B601AB172B6174BE362FEE7A36941
:10169000164A5A6259460320EB61FFF7A9FC00285D
:1016A000E5D02C6B2268136823F01F0313601368C6
:1016B000D907FCD4E96A657A64680A683D23AB40BF
:1016C0002360136823F01F0313601368DB07FCD447
:1016D0004C7A4A683D23A3401360C8E708080020FD
:1016E00068090020603500088C36000824080020B6
:1016F00070B5202304460D46164683F31188FFF784
:1017000057FDFFF7BDFD324629462046FEF7E8FFAC
:101710000446FFF785FDFFF743FD094B1A689A421F
:1017200004D0996992688968914204D3002383F3B5
:101730001188204670BD72B6024ADA62FEE700BF29
:101740006809002084350008000000000000000047
:10175000F8B5304E0446B769202383F31188FFF7AC
:1017600027FDFFF78DFDBD6B002D45D0AB68BB425B
:1017700003D072B6284BF362FEE7A54203D072B6DF
:10178000254BF362FEE7E168B963FEF789FF206845
:10179000844235D0FD6B59B1FEF782FF0B68994248
:1017A00003D09B689D4238BF1D46C9680029F3D10C
:1017B0000368826BBD6023605C60C4E902028463DD
:1017C000FEF7E6FFFEF76CFFFEF77AFF3268B369BB
:1017D00092689B689A421AD8FFF722FDFFF7E0FC57
:1017E0003368B34204D0B2699B6892689A420AD3C4
:1017F000002383F31188F8BD72B6074BF362FEE74E
:101800000023AB60E8E772B6044BF362FEE7FFF734
:10181000D7FCE1E768090020443600087835000865
:1018200008B50546202383F31188124EFFF7C0FC4C
:10183000FFF726FDB469A06A656204F12805A84295
:1018400006D00368A362FEF7A3FFA06AA842F8D1FE
:1018500094F822303BB994F821309B0703D1D4E9A6
:10186000043213615A610F20FFF71AFB72B6024B64
:10187000F362FEE7680900208036000800000000DF
:10188000002A79D02DE9F04F044685B00D469846E0
:101890001646D0F81CA0202787F31188DFF808919E
:1018A000FFF786FCFFF7ECFC019702963746A3682A
:1018B000D4E90420BB4234BFA6683E46121AB242A5
:1018C0005FD825D332462946FEF71CFDE2686261E7
:1018D000A268921BA2606EBB41462046FFF738FC0F
:1018E0000028E4D0029EFFF79BFCFFF759FCD9F8D3
:1018F00000304B4505D0D9F818209B6892689A4271
:101900004CD3002383F31188F01B05B0BDE8F08FA2
:101910002946A6EB020B0392FEF7F4FC039AE0685B
:10192000A9185A46FEF7EEFCA268E168921B5944DA
:101930006161A260BAF1000F01D02046D047FFF7E5
:101940006FFCFFF72DFCD9F800204A4505D0D9F8E7
:1019500018109268896891421BD3002383F3118881
:10196000019BBF1B354483F31188FFF721FCFFF770
:1019700087FC002F9BD1B5E772B60B4B0B4ADA629E
:10198000FEE732462946FEF7BDFC626932446261D9
:101990009EE772B6064BC9F82C30FEE772B6044BD0
:1019A000C9F82C30FEE700BF680900206437000842
:1019B000BC3500080000000000000000000000002E
:1019C0003030FFF75DBF00BF0000000000000000E6
:1019D00030304FF0FF33FFF753BF00BF000000006F
:1019E000F8B505460F461646202383F31188FFF706
:1019F000DFFBFFF745FC03E0FFF7AAFB041E27DB34
:101A0000AB6831462846002BF6D06A69AB68511C9A
:101A1000013B6961AB601770D5E904329A4224BF7B
:101A2000EB686B61EB6903B19847FFF7F9FBFFF7D0
:101A3000B7FB144B1A689A4204D099699268896876
:101A4000914217D3002080F3118804462046F8BD48
:101A5000FFF7E6FBFFF7A4FB0A4B1A689A4204D093
:101A6000996992688968914208D3002383F31188A9
:101A70002046F8BD72B6044ADA62FEE772B6024A40
:101A8000DA62FEE768090020BC35000800000000AB
:101A9000034904484FF0FF330222FFF7F1BE00BFB5
:101AA0000035000870080020000000000000000061
:101AB00070B5041E84B04FF0FF3227DD1D482B2186
:101AC000FFF78EFF6D461C482A4680FB0431E31762
:101AD000C3EBA10303EB8301A4EB41013031C9B295
:101AE0001CB2134602F8011B002CEED1AA420BD9FE
:101AF000104E1C4601E014F8011D4FF0FF32304635
:101B0000FFF76EFFA542F6D104B070BD2D21094844
:101B1000FFF766FF84EAE471A1EBE4710CB2002CDC
:101B2000D0D104484FF0FF32302104B0BDE87040FE
:101B3000FFF756BF70080020676666660000000069
:101B4000254B26481A696FEAC2526FEAD2522DE934
:101B500080481A611A69C2F308021A614FF0FF3413
:101B60001A695A695C61002259695A615969196A8E
:101B700061F080511962196A01F080511962196A85
:101B8000596A5C62596A5A62596A196C41F080510B
:101B90001964196E41F080511966196E016841F49B
:101BA00080710160196F01F44071B1F5007F8BB055
:101BB00003D04FF4803119671A6708480849426812
:101BC000084B094C22F40072002642600A460E605F
:101BD00003F1C0010CE000BF00380240007000407B
:101BE000A40B0020803700081060024053F80C4C12
:101BF00026600C338B42566002F10802F6D1C94FC1
:101C0000C94DCA4ACA48DFF878E36E6060234FF0D6
:101C1000FF384FF0400CC2F808804FF480746E61BA
:101C2000DFF86093C2F80C80C0F808808022EE6173
:101C3000C0F80C8087F806334FF40070C5F834E024
:101C4000C7F880C1C7F800C04FF4806C87F807332D
:101C5000DFF834A3C7F880213A6087F80833C7F863
:101C600080413C6087F80933C7F88001386087F805
:101C70000A334FF40000C7F880C1C7F800C005F16F
:101C80000C0C87F817334FF0010BC5F80CC0A949AD
:101C9000C7F88001C5F810C03860484687F8283377
:101CA000C7F884417C6085F800B0C5E90B66FEF793
:101CB000C7FBA14BA149C9F874305046FEF7C0FBE1
:101CC0009F49A04B81F800B0186C4E6040EA0B00B1
:101CD00018641C6E9C488E6044EA0B041C661B6EE4
:101CE000D0F808E0994C4E614EEA0B0EC1E9086647
:101CF000C0F808E04FF0804042F2CF0E8022C0F8DA
:101D000028E06460DFF884E2C0F82C8086614663D6
:101D1000C6604660C0F814B0C0F800B087F81C2355
:101D20008B4ADFF86CC2CAF87420C1F81CE0894AFB
:101D3000DFF860E2884B8A62C1F82CE04FF08052F5
:101D400001F10C0EC7F88021C1F80CE03A60C1F82F
:101D500010E0824F24600CF10C01A66003F1240E08
:101D6000CCE90311CCF80070CCE90166CCF8146022
:101D7000142703F1280C9F61C3F824E003F13C070A
:101D800003F1400EC3F828C003F1440C744ADF632A
:101D9000C3F840E0C3F844C003F1100A1C21042733
:101DA0007048DFF8F4E1DFF8F4C119631A629A634E
:101DB000C3E900339E605E61DE62C3F810A0DF619C
:101DC0005F63611800220023C4E90444C4E9098662
:101DD000C4E90711C0E900EC26636663CDE9082376
:101DE000CDE90566CDF81080C4F89860079604A880
:101DF000FEF746FC04A8FEF713FC013FF7D15A4B4F
:101E0000D4F814E0049AC4F898204FF0FF3600206C
:101E1000002180224FF0010CDFF88481C4F8A86013
:101E2000C4F8C06022646267C4F8508003F12C02D9
:101E3000C4E92B77C4E93177C4E91B77C4E9124EB2
:101E4000C4E92E01C4E93401C4F8A070C4F8A47038
:101E5000C4F8B470C4F8CC7084F8597084F85AC0CF
:101E600003F12808CEF81030C4F880603F4EA26617
:101E7000C4E91882C4E9217763612022C4F88C7018
:101E8000C4E92401A36184F858C0666582F311880F
:101E900062B6374B3749D868DFF808C1364E4FF67F
:101EA000FF0E00EA0E000143D960DCF80C10A069B7
:101EB00041F08071CCF80C1031684FF0100C41F0FB
:101EC00001013160483083F81FC083F82220FEF7FB
:101ED000D7FBD4E90C130B4340F0B48087F311888F
:101EE00062B682F31188FFF763F9FFF7C9F9276932
:101EF00097F82230013387F82230FFF791F9FFF786
:101F00004FF92368A34205D0A2699B6892689A4260
:101F1000C0F061814FF0000888F31188174E4FF030
:101F2000200B41E000E100E00808002000600240D2
:101F300000640240510500080044004061050008AB
:101F40003809002000380240002004E06809002021
:101F5000004C004016000100400A0020F116000865
:101F600031070008800B0020A00900200004002099
:101F700000ED00E00003FA05001000E0880A0020F0
:101F8000005C004040080020BC08002000380040F1
:101F9000880B002046000100300C002000000220C9
:101FA00034380008F0ED00E0FB69B34200F00F8127
:101FB0008BF31188FFF7FCF8FFF762F9D7F810A050
:101FC000A24500F001819AF82230FF2B00F00B812E
:101FD00001338AF82230FFF723F9FFF7E1F822688E
:101FE000A24205D0A36992689B689342C0F0F78033
:101FF00088F311888BF31188FFF7DAF8FFF740F9BF
:1020000097F82230002B00F0F680013B87F8223051
:102010003B6A03F0FF130F2B18D0FFF701F9FFF70E
:10202000BFF82368A34205D0A2699B6892689A42D0
:10203000C0F0DD8088F31188BAF1000F00F0F48061
:102040005746B1E772B66E4BE362FEE7D7E904325A
:1020500013613B695A61FFF7E3F8FFF7A1F82268C3
:10206000A24204D0A36992689B6893422ED388F35E
:10207000118897F8213003F00303012B2ED0022B97
:10208000DAD13B6C0193FF698BF31188FFF790F86D
:10209000FFF7F6F8FEF714FB019BDBB1D7B19A68A6
:1020A000013A174216D11A683A601F60FFF7B8F874
:1020B000FFF776F82368A342BCD0A2699B689268B8
:1020C0009A42B7D272B64F4BE362FEE772B64E4BFE
:1020D000E362FEE772B64D4BE362FEE7FF69002F55
:1020E00059D0780757D157E902030733DB08011DA0
:1020F00047F8043C0C30A7F10803039101900293C8
:102100008BF31188FFF754F8FFF7BAF80198FEF740
:10211000F7FEFFF785F8FFF743F822680399A2421C
:10212000DDE9010305D0D2F808C0A26992686245D2
:1021300035D388F311888C46634506D3DCF8042038
:1021400001320CEBC20293421FD36145DCF8002040
:1021500001D063451DD90AB193421AD257F8041C25
:1021600047F8082CCCF8003057F8082C013103EB65
:10217000C10E724520D0DCF80420511C0CEBC101CB
:102180008B4210D0FFF7E4FA56E772B6204BE362B9
:10219000FEE79446D0E772B61D4BE362FEE772B6E7
:1021A0001C4BE362FEE757E9021301331344CCF8FA
:1021B0000010CCF80430E5E7D2E9002E714447F86E
:1021C000082C47F8041CD6E74FF0000A03E772B664
:1021D000114BE362FEE772B6104BE362FEE772B6A4
:1021E0000E4BE362FEE772B60D4BE362FEE772B69A
:1021F000054BE362FEE772B60A4BE362FEE700BFFF
:1022000038350008903500086C3500082C36000879
:10221000383600087835000820360008C835000830
:10222000B436000870360008A74BF8275522013F46
:1022300003F8012BFBD1202383F31188FEF7B8FFAD
:10224000FFF71EF8FEF73CFAA04BA14A61697267DE
:10225000A048C6F894000222A6F8B82003F124088A
:1022600001229D48C6F8B000C6E92823C6F8AC1084
:10227000C6F8D42086F8BA20C6E93377C6F8B46029
:10228000B767C6F8A840C1F8108003F14C010020E0
:1022900050334FF0FF32C6F8C0100021C6E9313389
:1022A000C6E93C01C6E93977C6F8EC70C6F8E0200B
:1022B000C4F81480FEF7F4F92368A069A34204D09F
:1022C0009B6882689A42C0F047820023C6F8BC30FF
:1022D0008368002B00F024828048FEF759FAFEF74D
:1022E000AFFFFEF7DDFF202383F31188FEF760FFC9
:1022F000FEF7C6FF99F808305A1E012A00F2348210
:10230000012B11D1764B774A196C41F400311964D5
:10231000196E41F4003119661B6EC021402382F80A
:102320002613C2F884315360D9F874306E4A934250
:1023300063D06E4840F68B0240F24541834218BF9D
:102340000A469A604021012219615A6142F22C1119
:102350000022D9601A60FF21022218685B6889F8A0
:10236000781089F80820FEF75BFFFEF719FF236855
:10237000A34205D0A2699B6892689A42C0F0F88196
:10238000002383F311885A4840F282320421FEF779
:1023900097FC574840F282320821FEF791FC5448DE
:1023A00040F21E224FF48071FEF78AFC514840F241
:1023B0001E224FF40071FEF783FC202383F3118863
:1023C000FEF7F6FEFEF75CFF4B48FEF799FDFEF7C1
:1023D00027FFFEF7E5FE2368A34204D0A2699B68AD
:1023E00092689A420CD3002686F311882F78022F28
:1023F0000AD072B6414BE362FEE740F68B02A0E7DB
:1024000072B63F4BE362FEE7202383F31188FEF7A9
:10241000CFFEFEF735FF03233946642239482B707F
:10242000AE60FFF7ADF8411C08BF052706462F70C8
:10243000FEF7F6FEFEF7B4FE2368A34204D0A269BD
:102440009B6892689A423AD3002383F311882A4802
:102450002D4FDFF8C080FFF77BF973214FF0FF327B
:102460004046FFF7BDFA17F8011F0029F6D130B238
:10247000FFF71EFB254FFFF70BFB002E40F0AC8053
:10248000202383F31188FEF793FEFEF7F9FE4FF445
:102490007A710820FEF7ACFDFEF7D2FEDFF878A0D7
:1024A000DFF87090DFF83C80FEF7FAFE95F800B098
:1024B000BBF1020F32D072B6104BE362FEE772B688
:1024C000134BE362FEE700BF880A0020FC0A0020ED
:1024D000F1090008D102000840350008200B002057
:1024E0000038024000E100E000100140001401400B
:1024F00000000240000802401408002008370008CD
:10250000783500080408002004350008280C002055
:10251000483500087008002000080020202383F3BD
:102520001188FEF745FEFEF7ABFE002103234FF0B6
:10253000FF32A960504601212B70FFF721F8421CA1
:1025400008BF4FF0050B064685F800B0FEF768FEA1
:10255000FEF726FE2368A34204D0A2699B68926816
:102560009A424FD3002383F31188DFF840B27321DE
:102570004FF0FF324846FFF733FA1BF8011F0029DE
:10258000F6D130B2FFF794FAFFF782FA002E3DD071
:10259000AB68794E3B6045214FF0FF324846FFF76C
:1025A0001FFA16F8011F0029F6D1B7F90000FFF74E
:1025B0007FFAFFF76DFA202383F31188FEF7F8FD09
:1025C000FEF75EFE2B785A1E012A70D9052B2BD000
:1025D00072B66A4BE362FEE7AB68694EDFF8D08102
:1025E0003B6045214FF0FF324046FFF7F9F916F8FE
:1025F000011F0029F6D1B7F90000FFF759FAFFF7DC
:1026000047FA3DE772B65F4BE362FEE75E4E61213B
:102610004FF0FF324846FFF7E3F916F8011F002993
:10262000F6D1FFF735FAC6E7D5E90C034FF40041C0
:10263000026819600021196059605961136823F01C
:102640001F0313601368DB07FCD4417AEB6A42680E
:102650003D268E40196816600A6822F01F020A6043
:102660000E6816F00106FBD1597A5A683D238B405B
:102670001360FEF795FBE86AFEF792FB434B4FF4BD
:1026800000724FF48071C8F8881088F84863C8F861
:10269000882088F849631A6C2E6322F400021A64B9
:1026A0001A6EEE6222F400021A661B6E01E0012B24
:1026B000BAD1012300222B706A60FEF7B1FDFEF74C
:1026C0006FFD2368A34204D0A2699B6892689A4276
:1026D00022D3002383F31188202383F31188FEF78C
:1026E00067FDFEF7CDFD42F210710820FEF780FC79
:1026F000FEF796FDFEF754FD2368A34204D0A269BD
:102700009B6892689A4203D3002383F31188CBE637
:1027100072B61F4BE362FEE772B61A4BE362FEE746
:10272000FEF70EF8D4F8A4301A49C4F81880012234
:102730000133074686F8B8204830C4F8A430FDF7C6
:102740004FFFEFF30983FA69243B9A4208D81248F5
:102750003946FDF7B5FDC2E572B6104BE362FEE700
:1027600072B60F4BE362FEE772B60E4BE362FEE712
:1027700072B60D4BE362FEE71C350008EC3600082C
:102780001035000848350008283500080038024098
:102790006C350008680B0020200B00205036000824
:1027A000E03400082C3700085435000804350008D0
:1027B0007008002000000000000000000000000081
:1027C0003030FFF70DB900BF00000000000000002E
:1027D00030304FF0FF32FFF703B900BF00000000B8
:1027E000002A79D02DE9F04F044685B00D46984671
:1027F0001646D0F81CA0202787F31188DFF808912F
:10280000FEF7D6FCFEF73CFD019702963746A3681B
:10281000A1692269BB4234BFA6683E46521AB24241
:102820005FD825D332462846FDF76CFDE268A261E9
:10283000A268921BA2606EBB41462046FEF788FC50
:102840000028E4D0029EFEF7EBFCFEF7A9FCD9F8C5
:1028500000304B4505D0D9F818209B6892689A4201
:102860004CD3002383F31188F01B05B0BDE8F08F33
:102870002846A6EB020B0392FDF744FD039AE1689C
:10288000A8185A46FDF73EFDA268E168921B59441C
:10289000A161A260BAF1000F01D02046D047FEF737
:1028A000BFFCFEF77DFCD9F800204A4505D0D9F8D9
:1028B00018109268896891421BD3002383F3118812
:1028C000019BBF1B354483F31188FEF771FCFEF7B3
:1028D000D7FC002F9BD1B5E772B60B4B0B4ADA62DF
:1028E000FEE732462846FDF70DFDA2693244A2619B
:1028F0009EE772B6064BC9F82C30FEE772B6044B61
:10290000C9F82C30FEE700BF6809002054370008E2
:10291000BC350008000000000000000000000000BE
:102920000C30FFF75DBF00BF00000000000000009A
:102930000C304FF0FF33FFF753BF00BF0000000023
:1029400070B5202305460E4683F31188FEF730FC50
:10295000FEF796FC03E0FEF7FBFB041E27DBAB68EB
:1029600031462846002BF6D0A969AB6828694A1C75
:10297000013B8242AB60AA6128BFEB680C7828BF9C
:10298000AB61EB690BB128469847FEF749FCFEF7AF
:1029900007FC114B1A689A4204D0996992688968B9
:1029A000914215D3002383F31188204670BDFEF7B2
:1029B00037FCFEF7F5FB084B1A689A42F2D099698A
:1029C000926889689142EDD272B6044ADA62FEE7F3
:1029D00072B6024ADA62FEE768090020BC350008D8
:1029E0000C30FFF7ADBF00BF00000000000000008A
:1029F0000C304FF0FF31FFF7A3BF00BF0000000015
:102A00007E4A7F481369DFF84CC240F2FF110B4346
:102A10002DE9F041136113697A4EDFF83CE27A4FF9
:102A20007A4D7B4C23F4FF7323F001031361136988
:102A3000136B0B431363136D0B4313656FF4A841C2
:102A40000023D2F85080436081604FF6FF71C0F8D8
:102A50000CE0DFF808824161DFF804E207624FF41E
:102A60001077C0F82480C0F800E077604FF0FF30A6
:102A7000DFF8F0E1B0604FF08067C6F80CE07161FC
:102A80004FF0400E3762634FC6F824E0376006F11E
:102A9000A25606F5443606F5AA766B60A860EE608D
:102AA0004FF0C04669612E625B4E6E625B4E2E60D7
:102AB0005B4D6360A060E56040F6FF756561594F4E
:102AC000594E5A4D236263622560CCF80430584D4C
:102AD000CCF8080004F5A054CCF80C30CCF8141055
:102AE000CCF82030CCF82430CCF800E0ACF5D03C69
:102AF0007B60B860FB6079613B627B623B607360C6
:102B00004FF08057B060F36071613362736233607D
:102B10004FF440466B60A860EB6069612B626B62AA
:102B20002B606360A060E360616123626362236085
:102B30001764CCF80060136843F001031360136856
:102B40009E07FCD591682D4B21F0030191609A6896
:102B500012F00C02FBD11868284900F0F900186047
:102B60009A601A6842F480321A600B689D03FCD5A3
:102B70004A6F224B42F001024A675A6F9407FCD514
:102B80002C4A5A601A682C4942F080721A604B68CD
:102B90005804FCD5194B1A689201FCD52749284ADC
:102BA00099601268274B9A421ED0274B40F205725B
:102BB0001A60254A136803F00F03052BFAD10F4B57
:102BC0009A6842F002029A609A6802F00C02082A9F
:102BD000FAD15A6C42F480425A645A6E42F48042EE
:102BE0005A665B6EBDE8F081184A194B12689A422A
:102BF000DBD1154B40F205121A60DAE700380240CB
:102C00000000024000040240000056550008024047
:102C1000000C02408020080000060600018020020F
:102C200055505500001402400018024000010055A4
:102C3000001C02400854400700700040009488388F
:102C4000002004E011640020003C024000ED00E0A0
:102C500041C20F41001002405400014000AA0A0086
:102C600000AAA02A154551550000000000000000F0
:102C700008B5FDF7A5FCFDF743FE0448FDF7C0FECF
:102C8000FDF726FEBDE80840FDF772BCBC08002039
:102C900008B5FDF795FCFDF733FE0448FDF7B0FEDF
:102CA000FDF716FEBDE80840FDF762BC40080020B5
:102CB0002DE9F84F4FF08045FDF782FCFDF720FE2F
:102CC0002B69EA681340DAB2D2439B072A6105D424
:102CD000FDF7FEFDBDE8F84FFDF74ABC202383F366
:102CE0001188324EFDF7D4FCFDF73AFEFDF7E8FC03
:102CF000FDF7E6FCF469686AB36AA268A0EB030911
:102D00004A4506F11C0A98BF002729D84FF0200831
:102D100000E0B36A2168D4F80CB013445145B362A3
:102D2000C1F804A0F161E76008BFEF60A9EB0209F8
:102D3000FDF7FEFDFDF79CFC87F311882069D8475D
:102D400088F31188FDF7A4FCFDF70AFEF469A26878
:102D50009145DED2686AB36AA0EB03099145D5D2EA
:102D6000544516D0A268B062121A1344022B2CBF2D
:102D7000C0180230A360FEF783F84FF08043B26AB8
:102D80005B6A801A9B1A834203D972B6084BF362BE
:102D9000FEE7FDF7CDFDFDF76BFC002383F3118803
:102DA000FDF796FDBDE8F84FFDF7E2BB680900208E
:102DB0009C3500080000000000000000000000003A
:102DC0003E48F8B5436B5C69FDF7FAFBFDF798FDEB
:102DD000D0E90C5104F45F422B68D2434A611A686F
:102DE00022F01F021A60A2B21E68F607FCD495F802
:102DF00009C0C66A6F6835683D2303FA0CF33B606F
:102E00002B6823F01F032B602B6813F00103FBD109
:102E1000777A76683D25BD403560D70541BF4D695D
:102E200025F4807501234D619605836044BF43F00E
:102E30000203836055050AD54D6825F400754D6081
:102E40000D6843F0040345F400750D6083601705B9
:102E500044BF43F008038360560444BF43F020039B
:102E60008360D50420D543F010032104836002D58C
:102E700043F040038360202383F31188FDF708FCAF
:102E8000FDF76EFD0E486FF00101FDF709FDFDF73E
:102E90004FFDFDF7EDFB002383F31188FDF718FDCF
:102EA000BDE8F840FDF764BB2204E1D4002BE2D179
:102EB000FDF70EFDBDE8F840FDF75ABB08080020FD
:102EC00024080020000000000000000000000000B6
:102ED000F8B54B4EFDF774FBFDF712FD746B494AD4
:102EE000A369656945EA034323F07F4393426AD0AF
:102EF00035D8073A934226D00132934220D16268F6
:102F0000F36A22F400721B6862601A6842F00102E0
:102F10001A60626842F4805262605B68012B4DD98E
:102F200015F00A0F18BFA369EB0503D5636923F4F5
:102F300080736361FDF7CCFCBDE8F840FDF718BB7A
:102F4000B3F1011FECD1338C1A0A3FD002F0060214
:102F500003F00103134343F0F0032361E0E72A4A3F
:102F600093423BD002329342DAD1F36A22691B6862
:102F70005F6847B1328C236842F0010243F4A063DA
:102F800032842360D6E7636823F4007363602368A8
:102F900043F400732360202383F31188FDF778FB4B
:102FA000FDF7DEFC394606F11C00FDF779FCFDF764
:102FB000BFFCFDF75DFB87F31188B1E7236823F4BD
:102FC00080632360ACE7338CC3F34703236115F0C0
:102FD0000A0F18BFA369EB05ACD5A7E76368326B8E
:102FE00023F4007312686360136843F001031360F5
:102FF00015F00A0F18BFA369EB059BD596E700BF34
:1030000008080020080003008200070000000000FC
:1030100010B5FDF7D5FAFDF773FC094B094859685F
:10302000C26F890D01F03D018C05DC6012B1D0F852
:1030300080009047FDF74CFCBDE81040FDF798BAC2
:1030400000640240A40B002000000000000000000B
:1030500010B5FDF7B5FAFDF753FC094B094859685F
:10306000426F090C01F03D010C04DC600AB1806F75
:103070009047FDF72DFCBDE81040FDF779BA00BF81
:1030800000640240A40B00200000000000000000CB
:1030900010B5FDF795FAFDF733FC094B094859685F
:1030A000C26E890901F03D018C01DC600AB1006F3C
:1030B0009047FDF70DFCBDE81040FDF759BA00BF81
:1030C00000640240A40B002000000000000000008B
:1030D00008B5FDF775FAFDF713FC084B0848596869
:1030E000426E01F03D01D9600AB1806E9047FDF754
:1030F000EFFBBDE80840FDF73BBA00BF00640240AB
:10310000A40B0020000000000000000000000000F0
:1031100010B5FDF755FAFDF7F3FB094B094819689F
:10312000C26D890D01F03D018C059C600AB1006EF5
:103130009047FDF7CDFBBDE81040FDF719BA00BF81
:1031400000640240A40B002000000000000000000A
:1031500010B5FDF735FAFDF7D3FB094B094819689F
:10316000426D090C01F03D010C049C600AB1806DB8
:103170009047FDF7ADFBBDE81040FDF7F9B900BF82
:1031800000640240A40B00200000000000000000CA
:1031900010B5FDF715FAFDF7B3FB094B094819689F
:1031A000C26C890901F03D018C019C600AB1006D7F
:1031B0009047FDF78DFBBDE81040FDF7D9B900BF82
:1031C00000640240A40B002000000000000000008A
:1031D00008B5FDF7F5F9FDF793FB084B08481968AA
:1031E000426C01F03D0199600AB1806C9047FDF797
:1031F0006FFBBDE80840FDF7BBB900BF00640240AB
:10320000A40B0020000000000000000000000000EF
:1032100010B5FDF7D5F9FDF773FB094B094859685F
:10322000C26B890D01F03D018C05DC600AB1006CB8
:103230009047FDF74DFBBDE81040FDF799B900BF81
:1032400000600240A40B002000000000000000000D
:1032500010B5FDF7B5F9FDF753FB094B094859685F
:10326000426B090C01F03D010C04DC600AB1806B7B
:103270009047FDF72DFBBDE81040FDF779B900BF81
:1032800000600240A40B00200000000000000000CD
:1032900010B5FDF795F9FDF733FB094B094859685F
:1032A000C26A890901F03D018C01DC600AB1006B42
:1032B0009047FDF70DFBBDE81040FDF759B900BF81
:1032C00000600240A40B002000000000000000008D
:1032D00008B5FDF775F9FDF713FB084B0848596869
:1032E000426A01F03D01D9600AB1806A9047FDF75A
:1032F000EFFABDE80840FDF73BB900BF00600240AF
:10330000A40B0020000000000000000000000000EE
:1033100010B5FDF755F9FDF7F3FA094B094819689F
:10332000C269890D01F03D018C059C600AB1006AFB
:103330009047FDF7CDFABDE81040FDF719B900BF81
:1033400000600240A40B002000000000000000000C
:1033500010B5FDF735F9FDF7D3FA094B094819689F
:103360004269090C01F03D010C049C600AB18069BE
:103370009047FDF7ADFABDE81040FDF7F9B800BF82
:1033800000600240A40B00200000000000000000CC
:1033900010B5FDF715F9FDF7B3FA094B094819689F
:1033A000C268890901F03D018C019C600AB1006985
:1033B0009047FDF78DFABDE81040FDF7D9B800BF82
:1033C00000600240A40B002000000000000000008C
:1033D00008B5FDF7F5F8FDF793FA084B08481968AA
:1033E000426801F03D0199600AB180689047FDF79D
:1033F0006FFABDE80840FDF7BBB800BF00600240AF
:10340000A40B0020000000000000000000000000ED
:10341000F0B4144F144D1548154B164907F1700CB4
:103420000026984211D904391A4651F8044F42F83F
:10343000044B9042F9D8421ED21A22F00302043201
:1034400013449D4203D943F8046B9D42FBD8674562
:1034500005D0D7E90413D7E906051037E1E7F0BC3A
:10346000704700BF583800082C0C00202C0C00209E
:103470002C0C0020083900080000000000000000AB
:10348000FEE700BF00000000000000000000000098
:10349000704700BF000000000000000000000000B6
:0434A000704700BFB2
:1034A40053562331310000005356233130000000BD
:1034B40053562339000000005356233800000000FF
:1034C40053562337000000005356233600000000F3
:1034D400444D41206661696C757265007374616363
:1034E4006B206F766572666C6F77000053562335D8
:1034F4000000000053562334000000000D0A0000B1
:10350400737461747573203A000000004572726F21
:1035140072733A20000000004572726F72203A20E4
:1035240000000000616C6C20697320636C6561723B
:1035340021000000535623330000000069646C65C9
:10354400000000006368537973556E6C6F636B0001
:103554006368537973556E6C6F636B00636853795A
:1035640073556E6C6F636B006368537973556E6C3F
:103574006F636B006368537973556E6C6F636B0094
:103584006368537973556E6C6F636B00636853792A
:1035940073556E6C6F636B0063685654446F546963
:1035A400636B49006368546864446F44657175656E
:1035B40075654E65787449006368537973556E6C0C
:1035C4006F636B006368537973556E6C6F636B0044
:1035D400636853636852656164794900636856544B
:1035E400446F53657449000063684D74784C6F638D
:1035F4006B53000063685363685265616479416882
:1036040065616449000000006368436F7265416C42
:103614006C6F6346726F6D546F70490063685468D1
:1036240064437265617465006368506F6F6C4672C1
:1036340065654900636848656170467265650000A8
:1036440063684D7478556E6C6F636B006368536385
:103654006857616B657570530000000063684576B8
:10366400745369676E616C490000000063685468B4
:103674006452656C6561736500000000636854689A
:1036840064457869745300006368546864537573BF
:1036940070656E6454696D656F7574530000000045
:1036A4006368546864526573756D65490000000071
:1036B40063685265674E6578745468726561640026
:1036C40073745374617274416C61726D0000000014
:1036D400693263537461727400000000737453653B
:1036E40074416C61726D000069326353746F7000D1
:1036F4006932635F6C6C645F7365745F636C6F6382
:103704006B0000006932634D6173746572547261B9
:103714006E736D697454696D656F75740000000093
:103724005F63746C0000000073645374617274000E
:103734006932635F6C6C645F73746172740000005F
:10374400646D6153747265616D467265654900000C
:1037540069715265616454696D656F757400000028
:103764006F71577269746554696D656F7574000083
:1037740010600240086002400000000B2860024014
:10378400086002400006010C4060024008600240EC
:103794000010020D58600240086002400016030E3B
:1037A400706002400C6002400000040F8860024018
:1037B4000C60024000060510A06002400C6002404C
:1037C40000100611B86002400C6002400016072F7A
:1037D4001064024008640240000008382864024073
:1037E400086402400006093940640240086402404B
:1037F40000100A3A586402400864024000160B3B69
:10380400706402400C64024000000C3C8864024076
:103814000C64024000060D44A06402400C640240A3
:1038240000100E45B86402400C64024000160F46B6
:103834006D61696E00164130040460080C101418A0
:103844001C2021220000000001000000801A060054
:1038540002000000083900082C0C00202C0C002069
:103864002C0C002008390008000000200000002073
:10387400000000200839000800C0012000C0012019
:1038840000C001200839000800000000000000000A
:1038940000000000083900080000001000000010BB
:1038A40000000010083900080040024000400240B7
:1038B4000040024008390008000000000000000039
:1038C40000000000083900080000000000000000AB
:1038D4000000000000000000D11900083129000890
:1038E400D1270008F1290008C1270008E1290008B0
:0C38F400C119000821290008410E00083D
:08390000060000000B010000AD
:04000005080002B934
:00000001FF
