:020000040800F2
:1000000000040020B9020008BB020008BB0200087F
:10001000BB020008BB020008BB020008BB020008CC
:10002000BB020008BB020008BB020008810E0008EA
:10003000BB020008BB020008BB020008BB020008AC
:10004000BB020008BB020008BB020008BB0200089C
:10005000BB020008BB020008BB020008BB0200088C
:10006000BB020008BB020008BB0200080123000815
:10007000D1220008A12200087122000841220008B4
:1000800011220008E1210008BB020008BB020008A1
:10009000BB020008BB020008BB020008BB0200084C
:1000A000BB020008BB020008BB020008BB0200083C
:1000B000611F0008BB020008BB020008BB02000869
:1000C000BB020008BB020008BB020008BB0200081C
:1000D000BB020008BB020008411F0008BB02000869
:1000E000BB020008BB020008BB020008BB020008FC
:1000F000BB020008BB020008BB020008B1210008D7
:10010000BB020008BB020008BB020008BB020008DB
:10011000211F0008BB020008BB020008BB02000848
:10012000812100085121000821210008F120000848
:10013000C1200008BB020008BB020008BB02000887
:10014000BB020008BB020008BB020008BB0200089B
:10015000912000086120000831200008BB0200083F
:10016000BB020008BB020008BB020008BB0200087B
:10017000BB020008BB020008BB020008BB0200086B
:10018000BB020008BB020008BB020008BB0200085B
:10019000BB020008BB020008BB020008BB0200084B
:1001A000BB020008BB020008BB020008BB0200083B
:1001B000BB020008BB020008BB020008BB0200082B
:1001C000BB020008BB020008BB020008BB0200081B
:1001D000BB020008BB020008BB020008BB0200080B
:1001E00072B6274880F30888264880F30988264895
:1001F0004EF60851CEF200010860022080F3148808
:10020000BFF36F8F02F0DCF801F0D2FD4FF05530F4
:100210001E491B4A91423CBF41F8040BFAE71C49B6
:10022000184A91423CBF41F8040BFAE719491A4AAF
:100230001A4B9A423EBF51F8040B42F8040BF8E700
:1002400000201749174A91423CBF41F8040BFAE7D6
:1002500002F06EF802F0ACF8134C144DAC4203DA25
:1002600054F8041B8847F9E700F05AFF104C114D71
:10027000AC4203DA54F8041B8847F9E702F090B85F
:1002800000040020000800200000000800000020FA
:1002900000040020C82600080008002000080020F4
:1002A00000080020C8140020E0010008E001000858
:1002B000E0010008E001000892E700F000F8FEE726
:1002C0002DE9F04FC1F80CD0C3689D46BDE8F08F12
:1002D00000F0E6FD002383F311882846A0470020A4
:1002E00001F036FBFEE700F0E3FD01F059FB00F002
:1002F000D7FD00DFFEE70000844641EA000313F06B
:1003000003036DD1403A41D351F8043B40F8043B1C
:1003100051F8043B40F8043B51F8043B40F8043BDF
:1003200051F8043B40F8043B51F8043B40F8043BCF
:1003300051F8043B40F8043B51F8043B40F8043BBF
:1003400051F8043B40F8043B51F8043B40F8043BAF
:1003500051F8043B40F8043B51F8043B40F8043B9F
:1003600051F8043B40F8043B51F8043B40F8043B8F
:1003700051F8043B40F8043B51F8043B40F8043B7F
:1003800051F8043B40F8043B403ABDD2303211D31F
:1003900051F8043B40F8043B51F8043B40F8043B5F
:1003A00051F8043B40F8043B51F8043B40F8043B4F
:1003B000103AEDD20C3205D351F8043B40F8043B1F
:1003C000043AF9D2043208D0D2071CBF11F8013B1D
:1003D00000F8013B01D30B8803806046704700BFE3
:1003E000082A13D38B078DD010F003038AD0C3F1F2
:1003F0000403D21ADB071CBF11F8013B00F8013BD4
:1004000080D331F8023B20F8023B7BE7043AD9D392
:10041000013A11F8013B00F8013BF9D20B78037067
:100420004B7843708B788370604670470000000003
:10043000F0B40346124A43F8042B0122002510278A
:1004400000F1740600F10C044360C16400F1640320
:10045000027200F1300100F154024561C0E9034429
:10046000856287630664C0E90822F0BCC0E91133E5
:10047000C0E90C11C06200658261C361C36370474B
:10048000A02600080000000000000000000000009E
:10049000F0B4274C0346012220689A40024218BF5C
:1004A000002001D0F0BC7047224D024322602A6B2D
:1004B000214804EBC30442F40012C4E901102A638A
:1004C0002A6D1E4903EB430042F4001251F82060EC
:1004D0002A652A6D326822F01F0201EB800032602B
:1004E0005C00326812F00102FBD1234401EB83036C
:1004F0003D24D97A5D7A5F684B099B00AC4003F1DB
:10050000604301F160453C6003F56143012405F55A
:10051000614501F01F01326004FA01F1A02221249B
:10052000746185F80023C3F880111960BAE700BF31
:100530005C0B002000380240F80800203425000839
:10054000024AD36843F0C003D360704700440040C0
:10055000024AD36843F0C003D3607047004C0040A8
:10056000202383F311880D4B5B6813F4006302D1E1
:1005700083F311887047EFF30983203B4FF08072BB
:10058000DA6183F30988064A11689269896892687A
:1005900091428CBF034A044A9A61704700ED00E023
:1005A00028090020E7020008F2020008000000000D
:1005B000084A10B4D2E900344942201A084098424F
:1005C00004D3844202D310BC50607047002010BC9A
:1005D000704700BF380B0020000000000000000042
:1005E000202383F31188054AD2F898300133C2F8EA
:1005F0009830002383F31188704700BF280900203A
:100600000D4B42685B6870B48B60D0E90261D0E941
:1006100004459B1BE41845F100059342026888BF1E
:10062000436001319342C0E90445C0E9023170BC26
:1006300038BF0360704700BF001000E000000000FA
:100640000E4A0F4B5268D3F89030816830B4D31AF9
:10065000D0E90445C2685B1A01324168C260E418FF
:100660000268836045F100058B4288BF4360934276
:10067000C0E9044538BF036030BC7047001000E09B
:100680002809002000000000000000000000000019
:100690000148FFF7D5BF00BFE009002000000000BF
:1006A000014B5B6883607047001000E000000000B1
:1006B0000148FFF7F5BF00BFE0090020000000007F
:1006C00010B50146202383F31188FFF7F1FF91F85D
:1006D0002030072B0DD8DFE803F01D0C0C23080495
:1006E0000C084A6A936801339360D1E900321360C1
:1006F0005A604FF0FF34002288680B4B4C6281F83F
:1007000020201B689A688242FBD25A68C1E90032F5
:1007100011605960FFF7BCFF002383F3118810BDFF
:100720004B6A00221A60E4E728090020000000005C
:1007300000228168064B80F820201B689A688A4254
:10074000FBD25A68C0E9003210605860704700BFA1
:100750002809002000000000000000000000000048
:10076000F8B50468A04221D007460D46002604E0F3
:100770000B2A1CD02468A74218D0E3682B43E360FF
:1007800015B123691D42F5D0D4E90103416B90F8FE
:1007900020200B430A2A4363EAD1426A1342E9D07C
:1007A0004662FFF7C5FF2468A742E6D1F8BD426A5A
:1007B00032EA0303DED1F3E700000000000000008E
:1007C000FEE700BF00000000000000000000000085
:1007D0002DE9F84F466FD6F80C903368DA050446D9
:1007E0009DB279D4202383F31188FFF761FF15F0C0
:1007F0002F0F4FD0271D04F10C084FF0000A08E01E
:10080000A806D6F804B01ED4336813F02F0F9DB29B
:1008100040D02B07F4D015F0080F0CBF0021802129
:10082000E80748BF41F02001AA0748BF41F0400156
:100830006B0748BF41F480713846FFF791FFA80667
:10084000D6F804B0E0D5636994F878509BB3D4E946
:100850000832934237D06269591C013205EA0B0B0A
:100860006261216283F800B0D4E907329A4201D371
:10087000A3692362E0688045C6D00368E360C3F8DB
:100880000480C0F824A0FFF753FF336813F02F0F44
:100890009DB2BED1FFF7FCFE002383F3118819F04F
:1008A000800F01D02A063AD419F0400F01D06B0610
:1008B00025D4BDE8F88F04213846FFF751FFD4E96D
:1008C00008329342C7D16269002AC4D04FF48061D4
:1008D0003846FFF745FF97E7202383F31188FFF79A
:1008E000E7FE201D4FF40071FFF73AFF6FF48073AD
:1008F0003360FFF7CDFE002383F3118872E72023D6
:1009000083F31188FFF7D4FED4E911239A422FD044
:10091000FFF7BEFE002383F31188BDE8F88F202384
:1009200083F31188FFF7C4FED4E911239A4204F13E
:1009300030072AD0A26B216C581C0132A263A0643C
:10094000884293F8008001D3E36BA364206B874255
:1009500006D00368236300225F604262FFF7E8FE6F
:10096000C6F80480FFF794FE002383F311889BE709
:10097000A36B002BCCD0201D1021FFF7F1FE4FF60A
:10098000BF7309EA0303F360C2E7A26B002AD1D068
:100990000821201DFFF7E4FE4FF67F7309EA0303E9
:1009A000F360DFE70000000000000000000000002E
:1009B00011F00C0F00D1704772B6024B024ADA6296
:1009C000FEE700BF28090020C42300080000000043
:1009D00011F00C0F38B553D10D4641680B78044621
:1009E000002B37D1456A2A68136823F01F03136070
:1009F0001368D807FCD46A7A206A6D683D23934057
:100A000002682B60136823F01F0313601368DB0771
:100A1000FCD4457A4A6841683D23AB400B60002A0C
:100A200033D004232370204690472378042B2CD006
:100A3000202383F31188FFF73BFEA06820B1002339
:100A4000A3604362FFF774FEFFF722FE002383F3E7
:100A5000118838BDEB0603D54B68002BF9D09847B9
:100A6000AD06F6D563685B68002BF2D004222270D5
:100A7000204698472378042BEBD10323237038BDFD
:100A800072B6034B034ADA62FEE702232370CFE714
:100A900028090020C4230008000000000000000016
:100AA00002F0030C2DE9F04F6646C2F3C105D709E9
:100AB00000244FF00F094FF001084FF0030E12E031
:100AC000D0F800B003EA0B033343072C03603DD892
:100AD000036A23EA020242EA0A020262490833D0A8
:100AE000AD00B6000134CB07F8D5436808FA04F22C
:100AF00023EA02034360826863000EFA03F322EAEA
:100B000003022A438260D0F80CA004F007022AEA0C
:100B1000030A9200BCF1020FC0F80CA06FEA0303B5
:100B200007FA02FA09FA02F2CAD1072C15D8D0F84E
:100B300020B02BEA020242EA0A0202620268134073
:100B4000334349080360CBD1BDE8F08F436A23EA01
:100B5000020242EA0A024262C0E7D0F824B02BEA5D
:100B6000020242EA0A024262E8E700BF0000000017
:100B7000344A354B4FF080504FF4004110641960F7
:100B8000136843F00103136013689907FCD5936859
:100B90002C4923F0030393608B6813F00C03FBD103
:100BA0000A68284802F0F9020A608B600B6843F477
:100BB000A0230B6003689B03FCD5436F214A43F0DD
:100BC00001034367536F9907FCD5204B53601368AB
:100BD0001D4943F0807313604B685A04FCD5194AD1
:100BE00013689B01FCD51A4B1A4991601A681A4B7D
:100BF0009A421DD0194B40F201721A60174A1368CD
:100C000003F00F03012BFAD10E4A936843F002035D
:100C10009360936803F00C03082BFAD1536C43F4F0
:100C200080435364536E43F480435366536E70475E
:100C30000B4A0C4B12689A42DCD1084B40F201126D
:100C40001A60DBE7003802400070004008204107CE
:100C5000002004E00000883811640020003C0240BD
:100C600000ED00E041C20F41000000000000000064
:100C7000002070470000000000000000000000009D
:100C80001B4A816838B595690446A86800238142EB
:100C900063620CD884F8203013461B689A6891422E
:100CA000FBD95A68C4E9003214605C6038BD85F82D
:100CB000203013461B6899688842FBD359686960E5
:100CC00001202B600D605D6084F82000D2F89C301C
:100CD0009461034404F1480105F14800C2F89C30D6
:100CE000FFF78EFC29462046BDE83840FFF7E8BAFA
:100CF00028090020000000000000000000000000A3
:100D000038B50E4CA569216885F820000B68236072
:100D100001225C6081F82020D4F89C30A16113444A
:100D200005F148004831C4F89C30FFF769FCA06920
:100D30002946BDE83840FFF7C3BA00BF28090020A4
:100D4000F0B54B1C87B049D03F4C404FA369059389
:100D50002646022956F81C3F05464FF0804038BF12
:100D60000221B342426A04975BD0A76AD21B89185A
:100D70002ED398681B689A68091A914204D91B6897
:100D8000891A9A688A42FAD35A68029201AF01938B
:100D900017605F6003919A68511A4FF0FF329960B3
:100DA00062622846FFF7ACFF049B6BB1E369BB426C
:100DB0001BD0DDE901321360019BB3425A6003D0BE
:100DC0009A6803990A449A60A369586A07B0F0BD0B
:100DD0009A689142D1D20F444763CEE71A4CFFF78D
:100DE0008FFFA369586A07B0F0BD019BE361002241
:100DF000B3425E60049222D09A680398A16A0244CA
:100E00004FF080409A60436A581A8242DCD9CB1A6C
:100E10001344012B98BF821C4FF080430A445A634D
:100E2000D2E78B1801AFA262CDE90166C4E907776A
:100E300003910022436302230261C360B1E74FF0D4
:100E40008043DA60C0E700BF28090020C10600081F
:100E500061B1084A10B4926944680346C2E900349B
:100E60000420226010BC5A60FFF76ABF4FF0FF30C9
:100E7000704700BF280900200000000000000000AB
:100E8000EFF30983203383F30988002383F3118868
:100E9000704700BF000000000000000000000000DC
:100EA0000148FFF7CDBB00BFC809002000000000CB
:100EB0000148FFF7F5BB00BFC80900200000000093
:100EC000F8B50546202383F31188FFF7F1FF134B94
:100ED000134FDE6AD3E908420320187024681268B1
:100EE000E76046F480669F6A65602760D160556060
:100EF000166021680B4D41F0010121601168AC6959
:100F000041F00101116043F8084F6362FFF7F8FEFA
:100F1000FFF7C6FF002383F31188F8BDF80800200F
:100F2000E00B002028090020000000000000000065
:100F3000F8B50546202383F31188FFF7B9FF134B5B
:100F4000134F9E6AD3E90842032018702468126880
:100F5000E16046F48066D96A65602660D7605560B6
:100F6000116021680B4D41F0010121601168AC69ED
:100F700041F00101116043F8084F6362FFF7C0FEC2
:100F8000FFF78EFF002383F31188F8BDF8080020D7
:100F90000A260008280900200000000000000000C8
:100FA00030B50B4C0B4983B000224FF480550346FB
:100FB0008DF80420012065830B70FFF781FF01A9E4
:100FC0000120FFF7B5FF25839DF8040003B030BD75
:100FD00000040240B81400200000000000000000DF
:100FE00068B50546202383F31188FFF761FF0D489C
:100FF000D0E900364942751B0D40AA1A9A4209D31E
:10100000964207D34260FFF74BFF002383F311881A
:10101000284668BDFFF744FF0025002383F31188AD
:10102000284668BD380B00200000000000000000CA
:1010300008B50146202383F31188FFF739FF082004
:10104000FFF77EFEFFF72CFF002383F3118808BD16
:101050002DE9F04F85B0CDE90232C76904464FF063
:10106000200989F31188FFF723FF8AB3039D0E46F9
:101070004FF0000A8846A368D4E904209D428CBF43
:10108000A6682E46121AB24240D82BD24146A6EB91
:10109000020B0192FFF730F9019AE06808EB0201B8
:1010A0005A46FFF729F9A368E2689B1B5A4462611C
:1010B000A3600FB12046B847FFF7F2FE8AF311880C
:1010C000AD1BB04489F31188FFF7F2FE002DD2D199
:1010D000039DFFF7E5FE002383F31188284605B042
:1010E000BDE8F08F32464146FFF706F9E3686361D9
:1010F000A3689B1BA360002EDBD102992046FFF75B
:10110000A7FE0028B7D0039B5D1BE2E732464146AD
:10111000FFF7F2F8636933446361E9E70000000018
:10112000244B25481A696FEAC2526FEAD25280B541
:101130001A611A69C2F308021A614FF0FF341A6982
:101140005A695C61002259695A615969196A61F0EA
:1011500080511962196A01F080511962196A596A3D
:101160005C62596A5A62596A196C41F0805119647B
:10117000196E41F080511966196E016841F4807151
:101180000160196F01F44071B1F5007F86B003D0A2
:101190004FF4803119671A67074808494268084BBD
:1011A000084C22F40072002542600A460D6003F1EB
:1011B000C0010BE000380240007000405C0B0020D2
:1011C000402500081060024053F80C4C25600C3399
:1011D0009942556002F10802F6D1C94EC948CA4A7F
:1011E000CA4FDFF890A3CA4C60234FF0FF3840216C
:1011F000C0F808804FF08009C0F80C80C2F8088061
:10120000C2F80C8086F806334FF48072C6F880115D
:1012100031604FF4007186F80733C6F88091C6F844
:10122000009086F80833C6F88021326086F80933CA
:10123000C6F8801131604FF4806186F80A33C6F831
:10124000801131604FF4000186F817333846C6F834
:101250008011316086F82833AE49C6F88421726067
:10126000FFF7E6F85046AC4BAC497B67FFF7E0F878
:10127000AB4BAC4ACAF87420AB4A9A62AB495D6189
:1012800003F10C024FF0010AC3E90322D961A84916
:10129000D962C3E90155C3E9085583F800A0FFF7F7
:1012A00067FCA44B64601A6CA56042EA0A021A64E7
:1012B0001A6EA149246142EA0A021A661B6E8B6803
:1012C0009E4A646143EA0A038B604FF0804340F614
:1012D0007F4199624FF08050C3F82C80C4F824807D
:1012E0009D61A5625D635560DD6095605D60C3F8DA
:1012F00014A0C3F800A004F11C0386F81C939049C5
:10130000C6F88001E36130608E481060DFF868C283
:101310008D4823628D4BC1F800C002F10C06486075
:10132000002000212460D660CDE9040103F1100003
:101330001661186103F13C0603F140001421C3E972
:101340000033C3E90F605561CDE90155804ACDF8FE
:10135000008003F1280E03F124084FF01C0CC4F8A0
:10136000905003959D605D61DD629961042503F1F4
:101370004401C3F82480C3F828E0C3F830C059649E
:10138000DD615D631A629A636846FFF789F9684612
:10139000FFF756F9013DF7D16E4B009ED4F814E0EB
:1013A000C4F89060DFF8D481C4F8488080264FF0FC
:1013B000FF3200200021A663E6664FF0010C03F126
:1013C0002C0603F12808C4E92955C4E92F55C4E9BE
:1013D0001955C4E9104EC4E92C01C4E93201C4F81E
:1013E0009850C4F89C50C4F8AC50C4F8C45084F869
:1013F0005150C4F8A020C4F8B82084F852C0CEF8E8
:101400001030C4E916862666C4E91E256361C4F857
:1014100080502026C4F88450C4E92201A36184F8D6
:1014200050C0E56486F3118862B64B4B4B4AD968CD
:10143000DFF84CE1DFF84CC14FF6FF0001400A43F2
:10144000DA60DEF80C20A06942F08072CEF80C2041
:10145000DCF80020102142F00102CCF800204830D6
:10146000D97783F82260FFF71BF985F3118862B6FC
:101470003B4A5520134602F1F80103F8010B8B4259
:10148000FBD14FF0200A8AF31188FFF711FD354B8D
:10149000D4F814C0344D3548556702210025A2F810
:1014A000B810C2F8B000012103F12400304EC2F898
:1014B000ACC0C2F8A430C2F8A010C2F8D41082F8B0
:1014C000BA10C2E93355C2F8B420C2F8A8409567F3
:1014D000C2F894604FF0FF31CCF810004FF00008D4
:1014E00003F14C0C4FF000095033C2E93955C2E901
:1014F00030C3C2E93C89C2F8EC50C2F8C83043E0BE
:1015000000E100E0006002400064024000080020AA
:10151000280900204105000800440040510500084A
:10152000F8080020004C0040160001000038004080
:101530004600010000380240002004E0400B00207B
:10154000380B0020E10F000800000220F8090020FD
:10155000B10500085809002000ED00E00003FA057D
:10156000400A0020B40A0020C1070008D023000868
:10157000D10200087C080020C8140020F4250008CF
:10158000F0ED00E0001000E0C2F8E0106061FFF74D
:1015900077FBFFF785FC85F311888AF31188FFF745
:1015A00087FC3B7A012B11D1564B574A196C41F4F9
:1015B00000311964196E41F4003119661B6EC021A7
:1015C000402382F82613C2F8843153607B6F40F2C7
:1015D00015129A604020012142F22C120025186158
:1015E0005961DA60FF211D60022218685B6887F884
:1015F00078103A72FFF754FC85F311884348444D44
:1016000040F282320421FFF74BFA404840F2823226
:101610000821FFF745FA4FF0FF333E493E480F22BD
:10162000FFF716FD3D4840F29A224FF48061FFF724
:1016300037FA3B4840F29A220421FFF731FA384842
:1016400040F29A220821FFF72BFA19224FF4805119
:101650003248FFF725FA2B4605F59A61552203F823
:10166000012B8B42FBD1202383F31188FFF720FC51
:101670002C4B2D496269C5F86C64C5F84C142B4895
:10168000C5F888040226012103F12400A5F890641E
:1016900085F8921400268121C5F88424C5F87C348D
:1016A000C5F87814C5F8AC1403F14C074FF0FF31BE
:1016B000C5F88C54C5F88044C5F85064C5F8A864D2
:1016C000C5F8A4644FF0000810614FF0000903F161
:1016D0005002C3E91F89C5F8B814C5F89C24C5F8A1
:1016E000A024C5F8BC64C5F8C064C5F8C464C5F8D6
:1016F00098746061FFF7C4FAFFF7D2FB86F3118894
:10170000FEE700BF0038024000E100E000000240B8
:10171000E80F0020D8230008300800200004024011
:101720000008024034140020011A0008E8230008D1
:101730003030FFF78DBC00BF00000000000000004B
:1017400030304FF0FF33FFF783BC00BF00000000D4
:101750002DE9F041202305468846174683F311887A
:10176000FFF7A6FB03E0FFF773FB041E1EDBAE686A
:1017700039462846002EF6D06A69AB68511C013BF9
:101780006961AB6082F80080D5E904329A4224BFD7
:10179000EB686B61EB6903B19847FFF781FB0020B1
:1017A00080F3118804462046BDE8F081FFF778FBFE
:1017B00086F311882046BDE8F08100BF00000000DC
:1017C0003030FFF7C5BF00BF000000000000000080
:1017D00030304FF0FF32FFF7BBBF00BF000000000A
:1017E0002DE9F04F85B0CDE90232C76904464FF0CC
:1017F000200989F31188FFF75BFB002A31D0039D94
:101800000E464FF0000A8846A368A16922699D42EE
:101810008CBFA6682E46521AB24240D82BD2404600
:10182000A6EB020B0192FEF767FD019AE16808EB57
:1018300002005A46FEF760FDA368E2689B1B5A440B
:10184000A261A3600FB12046B847FFF729FB8AF3D6
:101850001188AD1BB04489F31188FFF729FB002DD7
:10186000D2D1039DFFF71CFB002383F31188284688
:1018700005B0BDE8F08F32464046FEF73DFDE36817
:10188000A361A3689B1BA360002EDBD102992046B5
:10189000FFF7DEFA0028B7D0039B5D1BE2E7324674
:1018A0004046FEF729FDA3693344A361E9E700BF81
:1018B0000C30FFF795BF00BF0000000000000000E3
:1018C0000C304FF0FF33FFF78BBF00BF000000006C
:1018D000F8B505460F46202383F31188FFF7E8FA91
:1018E00003E0FFF7B5FA041E1CDBAE683946284654
:1018F000002EF6D0A969AB6828694A1C013B8242D8
:10190000AB60AA6128BFEB680C7828BFAB61EB69BC
:101910000BB128469847FFF7C3FA002383F31188D9
:101920002046F8BDFFF7BCFA86F311882046F8BDC3
:101930000C30FFF7CDBF00BF00000000000000002A
:101940000C304FF0FF31FFF7C3BF00BF00000000B5
:1019500038B50246202383F31188FFF7A9FA0F4B0D
:101960009C69A06A626204F12805A84206D0036857
:10197000A362FEF7DDFEA06AA842F8D194F82230F7
:101980003BB994F821309B0703D1D4E904321361A9
:101990005A61BDE838400F20FFF7B2B9280900208E
:1019A00038B5144C2168A5690B68236001225C607E
:1019B00081F820200022A86885F82020A16100E09D
:1019C0001B689A689042FBD35868D4F89C206860E2
:1019D0002B604831056001325D6005F14800C4F8B4
:1019E0009C20FEF70DFEA0692946BDE83840FEF7B1
:1019F00067BC00BF280900200000000000000000B4
:101A0000DFF844A3C04CC14ADFF82483C04E2DE95F
:101A10008848DAF81830BF4F9A6104F10C09BE49C2
:101A20004FF0FF3305223846FFF712FB202383F3E4
:101A30001188FFF73DFA6069DAF81850002800F0C5
:101A40004A81AA6883689A420BD990F82030826054
:101A5000062B00F08781072B00F04D81002B00F052
:101A60004381AE4B03E09968AA68914202D31B6898
:101A70004B45F8D15A680620C5E9003215605D6013
:101A8000C5F82490FFF73CF9FFF70AFA002383F327
:101A90001188202383F31188FFF70AFA2378A04ADC
:101AA0006260012B00F0E0809D4D4FF0070C4FF479
:101AB0004870D4E90A12E36922F4F042E26221F4A8
:101AC000F0412D78002D00F0C88041F4847142F47B
:101AD0008472C4E90A121A6840F4417022F040028C
:101AE0001A601860C3F804C01A6842F040021A6015
:101AF000022323704FF0000BFFF7D2F98BF311880C
:101B00000520FFF74DFA874D034635202B70FFF770
:101B100047FA854A034615201370FFF741FA2978E2
:101B2000824D4FF0FF3228703846FFF711FE7E4A93
:101B3000384611784FF0FF32FFF70AFE29784FF050
:101B4000FF3238464FF48055FFF702FE4FF47A70AB
:101B5000FFF76EFA06237583754988F80030012077
:101B6000FFF7AEF94FF4487235837149758304204D
:101B7000C8F80020FFF7A4F935834FF47A70FFF717
:101B800057FA758306236A4988F800300120FFF769
:101B900097F940F202333583654975830420C8F80C
:101BA0000030FFF78DF9634940F22B10FFF788F9F9
:101BB00035834FF47A70FFF73BFA40F203337583B5
:101BC0005B49C8F800300420FFF77AF95A4940F21F
:101BD0002B10FFF7ADF935834FF47A70FFF728FA31
:101BE00055494FF0FF3323223846FFF731FA42F2CE
:101BF0001070FFF71DFADAF81820202383F31188FC
:101C0000FFF756F9E068A3699363484560D0D16B4C
:101C10004BB11D68AB4203D0AD68A94238BF29461D
:101C2000DB68002BF5D103689160826BE360C3F839
:101C30000490C0F83890C4E90502FEF779FDDAF89F
:101C40000020DAF8183092689B689A4249D8FFF76A
:101C500027F9002383F31188E1E621F4847122F44B
:101C60008472C4E90A1236E734490320FEF710FCF7
:101C7000334920620420FEF70BFC324A216A136CC0
:101C8000D1F800C06568D0F800E043F480431364E5
:101C9000116EE369606241F48041288A1166126E18
:101CA00003F10C02CCF80820CEF80820020574D508
:101CB000D4E90A12B5F812C022F4F04242F42052DC
:101CC00021F4F041E26241F420514CF0070CF8E6B7
:101CD000C4F814B0BBE7AB6BC5F83890C4E9055342
:101CE000D2E6FFF75DFEB2E7D0E9003213605A603A
:101CF000FEF71EFDB5E6D0E90031D0F824C00B6038
:101D00005960634625E000BFF8080020F023000872
:101D100000040240300800200024000804090020CC
:101D20000C260008C2140020C3140020C414002094
:101D3000B814002008240008E40B0020D109000892
:101D4000B109000800380240280900209968914232
:101D500002D31B689C45F9D15A68C0E90032106073
:101D600058607EE6D0E90031D0F824C00B6059609D
:101D7000634602E09968914202D31B689C45F9D101
:101D80005A68C0E9003210605860DCF80800AA68A0
:101D900083689A423FF659AE63E6B5F812C04CF03C
:101DA000070C86E6000000000000000000000000B4
:101DB000464A47491369DFF850C14648F0B540F23A
:101DC000FF16334313611369434DDFF840E1434C81
:101DD000434F23F4FF7323F0010313611369136B63
:101DE00033431363136D334313656FF4A846002325
:101DF000126D4B604FF6FF728E603A4EC1F80CC008
:101E00004A61DFF80CC1C1F820E04E624FF4107651
:101E1000C1F800C06E604FF0FF31DFF8F8C0A96074
:101E20004FF08066C5F80CC06A614FF0400C2E621E
:101E30002D4EC5F824C02E6005F1A25505F5443598
:101E400005F5AA756360A160E5604FF0C045626169
:101E50002562264D6562264D2560264C43608160D3
:101E6000C46040F6FF744461234C0362234E436216
:101E7000234D0460234C7B6000F5A050B960FB60EB
:101E80007A613B627B62C7F800C07360B160F36047
:101E900072613362736233606B60A960EB606A6188
:101EA0002B626B622B606360A160E36062612362FE
:101EB000636223604360BDE8F0408160C3604261BB
:101EC000036243620360FEF753BE00BF0038024066
:101ED00000000240000C02400004024000080240E2
:101EE0000010024000AA0A00802008000006060038
:101EF0000180200255505500000100550014024099
:101F000000180240001C02405400014000005655D9
:101F100000AAA02A1545515500000000000000004D
:101F200008B5FEF75DFB0348FEF752FCBDE808402C
:101F3000FEF716BB7C080020000000000000000037
:101F400008B5FEF74DFB0348FEF742FCBDE808402C
:101F5000FEF706BB000800200000000000000000A3
:101F60002DE9F84F4FF08045FEF73AFB2B69EA6800
:101F70001340DAB2D2439B072A6103D4BDE8F84F7D
:101F8000FEF7EEBA202383F31188264EFEF790FB6E
:101F9000F469686AB36AA268A0EB03094A4506F1CE
:101FA0001C0A98BF002725D84FF0200800E0B36A2C
:101FB0002168D4F80CB013445145B362C1F804A0B1
:101FC000F161E76008BFEF60A9EB0209FEF760FB73
:101FD00087F311882069D84788F31188FEF768FBDA
:101FE000F469A2689145E2D2686AB36AA0EB03097A
:101FF0009145D9D254450BD0A268B062121A13444D
:102000004FF08042022B2CBFC0180230A3605063F7
:10201000FEF73EFB002383F31188BDE8F84FFEF77F
:102020009FBA00BF28090020000000000000000047
:1020300010B5FEF7D5FA084B08485968C26F890DEC
:1020400001F03D018C05DC6012B1D0F880009047B2
:10205000BDE81040FEF784BA006402405C0B00202B
:1020600010B5FEF7BDFA084B08485968426F090CD5
:1020700001F03D010C04DC600AB1806F9047BDE8BF
:102080001040FEF76DBA00BF006402405C0B0020F8
:1020900010B5FEF7A5FA084B08485968C26E8909C1
:1020A00001F03D018C01DC600AB1006F9047BDE892
:1020B0001040FEF755BA00BF006402405C0B0020E0
:1020C00008B5FEF78DFA074B07485968426E01F0D4
:1020D0003D01D9600AB1806E9047BDE80840FEF727
:1020E0003FBA00BF006402405C0B0020000000000B
:1020F00010B5FEF775FA084B08481968C26D890DCE
:1021000001F03D018C059C600AB1006E9047BDE86E
:102110001040FEF725BA00BF006402405C0B0020AF
:1021200010B5FEF75DFA084B08481968426D090CB6
:1021300001F03D010C049C600AB1806D9047BDE840
:102140001040FEF70DBA00BF006402405C0B002097
:1021500010B5FEF745FA084B08481968C26C8909A2
:1021600001F03D018C019C600AB1006D9047BDE813
:102170001040FEF7F5B900BF006402405C0B002080
:1021800008B5FEF72DFA074B07481968426C01F0B5
:102190003D0199600AB1806C9047BDE80840FEF7A8
:1021A000DFB900BF006402405C0B002000000000AB
:1021B00010B5FEF715FA084B08485968C26B890D2F
:1021C00001F03D018C05DC600AB1006C9047BDE870
:1021D0001040FEF7C5B900BF006002405C0B002054
:1021E00010B5FEF7FDF9084B08485968426B090C19
:1021F00001F03D010C04DC600AB1806B9047BDE842
:102200001040FEF7ADB900BF006002405C0B00203B
:1022100010B5FEF7E5F9084B08485968C26A890904
:1022200001F03D018C01DC600AB1006B9047BDE814
:102230001040FEF795B900BF006002405C0B002023
:1022400008B5FEF7CDF9074B07485968426A01F017
:102250003D01D9600AB1806A9047BDE80840FEF7A9
:102260007FB900BF006002405C0B0020000000004E
:1022700010B5FEF7B5F9084B08481968C269890D11
:1022800001F03D018C059C600AB1006A9047BDE8F1
:102290001040FEF765B900BF006002405C0B0020F3
:1022A00010B5FEF79DF9084B084819684269090CFA
:1022B00001F03D010C049C600AB180699047BDE8C3
:1022C0001040FEF74DB900BF006002405C0B0020DB
:1022D00010B5FEF785F9084B08481968C2688909E6
:1022E00001F03D018C019C600AB100699047BDE896
:1022F0001040FEF735B900BF006002405C0B0020C3
:1023000008B5FEF76DF9074B07481968426801F0F8
:102310003D0199600AB180689047BDE80840FEF72A
:102320001FB900BF006002405C0B002000000000ED
:10233000F0B4144F144D1548154B164907F1700CA5
:102340000026984211D904391A4651F8044F42F830
:10235000044B9042F9D8421ED21A22F003020432F2
:1023600013449D4203D943F8046B9D42FBD8674553
:1023700005D0D7E90413D7E906051037E1E7F0BC2B
:10238000704700BF20260008C8140020C814002091
:10239000C8140020C826000800000000000000004B
:1023A000FEE700BF00000000000000000000000089
:1023B000704700BF000000000000000000000000A7
:0423C000704700BFA3
:1023C400444D41206661696C7572650069646C6591
:1023D40000000000577269746520612053747269AB
:1023E4006E670A006E6F6E616D6500005350492080
:1023F40074687265616420310000000077713237BF
:10240400350000005468652053544D33322048375A
:102414002D73657269657320697320612067726F1B
:102424007570206F66206869676820706572666FD2
:10243400726D616E63652053544D3332206D696350
:10244400726F636F6E74726F6C6C6572732062610D
:10245400736564206F6E207468652041524D20437B
:102464006F727465782D4D374620636F72652077DF
:1024740069746820646F75626C652D707265636938
:1024840073696F6E20666C6F6174696E6720706F1C
:10249400696E7420756E697420616E64206F707447
:1024A400696F6E616C207365636F6E6420436F7235
:1024B4007465782D4D344620636F72652077697496
:1024C400682073696E676C652D70726563697369E2
:1024D4006F6E20666C6F6174696E6720706F696ED1
:1024E400742E20436F727465782D4D374620636FC8
:1024F40072652063616E20726561636820776F7214
:102504006B696E67206672657175656E6379207597
:102514007020746F20343830204D487A2C2077682E
:10252400696C6520436F727465782D4D34462000C4
:1025340010600240086002400000000B2860024066
:10254400086002400006010C40600240086002403E
:102554000010020D58600240086002400016030E8D
:10256400706002400C6002400000040F886002406A
:102574000C60024000060510A06002400C6002409E
:1025840000100611B86002400C6002400016072FCC
:1025940010640240086402400000083828640240C5
:1025A400086402400006093940640240086402409D
:1025B40000100A3A586402400864024000160B3BBB
:1025C400706402400C64024000000C3C88640240C9
:1025D4000C64024000060D44A06402400C640240F6
:1025E40000100E45B86402400C64024000160F4609
:1025F4006D61696E00164130040460080C101418F3
:102604001C2021220000FFFF000000000000000049
:10261400000402400C00000020030000C82600084B
:10262400C8140020C8140020C8140020C8260008BC
:10263400000000200000002000000020C826000840
:1026440000C0012000C0012000C00120C8260008ED
:10265400000000000000000000000000C826000880
:10266400000000100000001000000010C826000840
:10267400004002400040024000400240C8260008DA
:10268400000000000000000000000000C826000850
:102694000000000000000000000000000000000036
:1026A40041170008C1180008D11700084119000893
:1026B400C11700083119000831170008B1180008C3
:0426C400710C00088D
:04000005080002B934
:00000001FF
