:020000040800F2
:1000000000040020B9020008BB020008BB0200087F
:10001000BB020008BB020008BB020008BB020008CC
:10002000BB020008BB020008BB020008710C0008FC
:10003000BB020008BB020008BB020008BB020008AC
:10004000BB020008BB020008BB020008BB0200089C
:10005000BB020008BB020008BB020008BB0200088C
:10006000BB020008BB020008BB020008BB0200087C
:10007000BB020008BB020008BB020008BB0200086C
:10008000BB020008BB020008BB020008BB0200085C
:10009000BB020008BB020008BB020008BB0200084C
:1000A000BB020008BB020008BB020008BB0200083C
:1000B00071190008BB020008BB020008BB0200085F
:1000C000BB020008BB020008BB020008BB0200081C
:1000D000BB020008BB02000851190008BB0200085F
:1000E000BB020008BB020008BB020008BB020008FC
:1000F000BB020008BB020008BB020008BB020008EC
:10010000BB020008BB020008BB020008BB020008DB
:1001100031190008BB020008BB020008BB0200083E
:10012000BB020008BB020008BB020008BB020008BB
:10013000BB020008BB020008BB020008BB020008AB
:10014000BB020008BB020008BB020008BB0200089B
:10015000BB020008BB020008BB020008BB0200088B
:10016000BB020008BB020008BB020008BB0200087B
:10017000BB020008BB020008BB020008BB0200086B
:10018000BB020008BB020008BB020008BB0200085B
:10019000BB020008BB020008BB020008BB0200084B
:1001A000BB020008BB020008BB020008BB0200083B
:1001B000BB020008BB020008BB020008BB0200082B
:1001C000BB020008BB020008BB020008BB0200081B
:1001D000BB020008BB020008BB020008BB0200080B
:1001E00072B6274880F30888264880F30988264895
:1001F0004EF60851CEF200010860022080F3148808
:10020000BFF36F8F01F064FC01F05AFA4FF05530E4
:100210001E491B4A91423CBF41F8040BFAE71C49B6
:10022000184A91423CBF41F8040BFAE719491A4AAF
:100230001A4B9A423EBF51F8040B42F8040BF8E700
:1002400000201749174A91423CBF41F8040BFAE7D6
:1002500001F0F6FB01F034FC134C144DAC4203DA10
:1002600054F8041B8847F9E700F02AFE104C114DA2
:10027000AC4203DA54F8041B8847F9E701F018BCD4
:1002800000040020000800200000000800000020FA
:1002900000040020D81B00080008002000080020EF
:1002A00000080020980C0020E0010008E001000890
:1002B000E0010008E001000892E700F000F8FEE726
:1002C0002DE9F04FC1F80CD0C3689D46BDE8F08F12
:1002D00000F0DEFC002383F311882846A0470020AD
:1002E00001F096F9FEE700F0DBFC01F0B9F900F04F
:1002F000CFFC00DFFEE70000844641EA000313F074
:1003000003036DD1403A41D351F8043B40F8043B1C
:1003100051F8043B40F8043B51F8043B40F8043BDF
:1003200051F8043B40F8043B51F8043B40F8043BCF
:1003300051F8043B40F8043B51F8043B40F8043BBF
:1003400051F8043B40F8043B51F8043B40F8043BAF
:1003500051F8043B40F8043B51F8043B40F8043B9F
:1003600051F8043B40F8043B51F8043B40F8043B8F
:1003700051F8043B40F8043B51F8043B40F8043B7F
:1003800051F8043B40F8043B403ABDD2303211D31F
:1003900051F8043B40F8043B51F8043B40F8043B5F
:1003A00051F8043B40F8043B51F8043B40F8043B4F
:1003B000103AEDD20C3205D351F8043B40F8043B1F
:1003C000043AF9D2043208D0D2071CBF11F8013B1D
:1003D00000F8013B01D30B8803806046704700BFE3
:1003E000082A13D38B078DD010F003038AD0C3F1F2
:1003F0000403D21ADB071CBF11F8013B00F8013BD4
:1004000080D331F8023B20F8023B7BE7043AD9D392
:10041000013A11F8013B00F8013BF9D20B78037067
:100420004B7843708B788370604670470000000003
:10043000F0B40346124A43F8042B0122002510278A
:1004400000F1740600F10C044360C16400F1640320
:10045000027200F1300100F154024561C0E9034429
:10046000856287630664C0E90822F0BCC0E91133E5
:10047000C0E90C11C06200658261C361C36370474B
:10048000B01B000800000000000000000000000099
:100490002DE9F04701F003072E4ACE093D4600241E
:1004A0004FF00F084FF0010E4FF0030C11E0D2F89F
:1004B00000A003EA0A032B43072C13603AD8136AFF
:1004C00023EA010141EA09011162400830D0AD0080
:1004D0000134C307F9D553680EFA04F123EA010386
:1004E0005360916863000CFA03F321EA0301916001
:1004F000D2F80C9004F0070129EA03098900022FC1
:10050000C2F80C906FEA030306FA01F908FA01F148
:10051000CDD1072C15D8D2F820A02AEA010141EA52
:100520000901116211680B402B4340081360CED1C2
:10053000BDE8F087536A23EA010141EA09015162EB
:10054000C3E7D2F824A02AEA010141EA0901516275
:10055000E8E700BF000002400000000000000000CB
:10056000024AD36843F0C003D360704700440040A0
:10057000024AD36843F0C003D3607047004C004088
:10058000202383F311880D4B5B6813F4006302D1C1
:1005900083F311887047EFF30983203B4FF080729B
:1005A000DA6183F30988064A11689269896892685A
:1005B00091428CBF034A044A9A61704700ED00E003
:1005C000F8080020E7020008F2020008000000001E
:1005D000084A10B4D2E900344942201A084098422F
:1005E00004D3844202D310BC50607047002010BC7A
:1005F000704700BF080B0020000000000000000052
:10060000202383F31188054AD2F898300133C2F8C9
:100610009830002383F31188704700BFF80800204A
:100620000D4B42685B6870B48B60D0E90261D0E921
:1006300004459B1BE41845F100059342026888BFFE
:10064000436001319342C0E90445C0E9023170BC06
:1006500038BF0360704700BF001000E000000000DA
:100660000E4A0F4B5268D3F89030816830B4D31AD9
:10067000D0E90445C2685B1A01324168C260E418DF
:100680000268836045F100058B4288BF4360934256
:10069000C0E9044538BF036030BC7047001000E07B
:1006A000F80800200000000000000000000000002A
:1006B0000148FFF7D5BF00BFB009002000000000CF
:1006C000014B5B6883607047001000E00000000091
:1006D0000148FFF7F5BF00BFB0090020000000008F
:1006E00010B50146202383F31188FFF7F1FF91F83D
:1006F0002030072B0DD8DFE803F01D0C0C23080475
:100700000C084A6A936801339360D1E900321360A0
:100710005A604FF0FF34002288680B4B4C6281F81E
:1007200020201B689A688242FBD25A68C1E90032D5
:1007300011605960FFF7BCFF002383F3118810BDDF
:100740004B6A00221A60E4E7F8080020000000006D
:1007500000228168064B80F820201B689A688A4234
:10076000FBD25A68C0E9003210605860704700BF81
:10077000F808002000000000000000000000000059
:10078000F8B50468A04221D007460D46002604E0D3
:100790000B2A1CD02468A74218D0E3682B43E360DF
:1007A00015B123691D42F5D0D4E90103416B90F8DE
:1007B00020200B430A2A4363EAD1426A1342E9D05C
:1007C0004662FFF7C5FF2468A742E6D1F8BD426A3A
:1007D00032EA0303DED1F3E700000000000000006E
:1007E000FEE700BF00000000000000000000000065
:1007F0002DE9F84F466FD6F80C903368DA050446B9
:100800009DB279D4202383F31188FFF761FF15F09F
:100810002F0F4FD0271D04F10C084FF0000A08E0FD
:10082000A806D6F804B01ED4336813F02F0F9DB27B
:1008300040D02B07F4D015F0080F0CBF0021802109
:10084000E80748BF41F02001AA0748BF41F0400136
:100850006B0748BF41F480713846FFF791FFA80647
:10086000D6F804B0E0D5636994F878509BB3D4E926
:100870000832934237D06269591C013205EA0B0BEA
:100880006261216283F800B0D4E907329A4201D351
:10089000A3692362E0688045C6D00368E360C3F8BB
:1008A0000480C0F824A0FFF753FF336813F02F0F24
:1008B0009DB2BED1FFF7FCFE002383F3118819F02F
:1008C000800F01D02A063AD419F0400F01D06B06F0
:1008D00025D4BDE8F88F04213846FFF751FFD4E94D
:1008E00008329342C7D16269002AC4D04FF48061B4
:1008F0003846FFF745FF97E7202383F31188FFF77A
:10090000E7FE201D4FF40071FFF73AFF6FF480738C
:100910003360FFF7CDFE002383F3118872E72023B5
:1009200083F31188FFF7D4FED4E911239A422FD024
:10093000FFF7BEFE002383F31188BDE8F88F202364
:1009400083F31188FFF7C4FED4E911239A4204F11E
:1009500030072AD0A26B216C581C0132A263A0641C
:10096000884293F8008001D3E36BA364206B874235
:1009700006D00368236300225F604262FFF7E8FE4F
:10098000C6F80480FFF794FE002383F311889BE7E9
:10099000A36B002BCCD0201D1021FFF7F1FE4FF6EA
:1009A000BF7309EA0303F360C2E7A26B002AD1D048
:1009B0000821201DFFF7E4FE4FF67F7309EA0303C9
:1009C000F360DFE70000000000000000000000000E
:1009D0001D4A436F934230B408D002F580629342BF
:1009E00004D01A4A0C68B2FBF4F203E0184A0C680F
:1009F000B2FBF4F2B1F904508C88002D05DA22F034
:100A0000070502F0070242EA4502CD8809899A608B
:100A100044F4045204F4A05441F00101B4F5806F91
:100A200045F0400542F02C024FF000041D61596171
:100A3000DA6008BF7F211C6018BFFF211A685B685D
:100A400080F8781030BC70470010014080DE8002D2
:100A500000BD0105000000000000000000000000D3
:100A600000207047000000000000000000000000AF
:100A70001B4A816838B595690446A86800238142FD
:100A800063620CD884F8203013461B689A68914240
:100A9000FBD95A68C4E9003214605C6038BD85F83F
:100AA000203013461B6899688842FBD359686960F7
:100AB00001202B600D605D6084F82000D2F89C302E
:100AC0009461034404F1480105F14800C2F89C30E8
:100AD000FFF7A6FD29462046BDE83840FFF7F0BBEA
:100AE000F8080020000000000000000000000000E6
:100AF00038B50E4CA569216885F820000B68236085
:100B000001225C6081F82020D4F89C30A16113445C
:100B100005F148004831C4F89C30FFF781FDA06919
:100B20002946BDE83840FFF7CBBB00BFF8080020DE
:100B3000F0B54B1C87B049D03F4C404FA36905939B
:100B40002646022956F81C3F05464FF0804038BF24
:100B50000221B342426A04975BD0A76AD21B89186C
:100B60002ED398681B689A68091A914204D91B68A9
:100B7000891A9A688A42FAD35A68029201AF01939D
:100B800017605F6003919A68511A4FF0FF329960C5
:100B900062622846FFF7ACFF049B6BB1E369BB427E
:100BA0001BD0DDE901321360019BB3425A6003D0D0
:100BB0009A6803990A449A60A369586A07B0F0BD1D
:100BC0009A689142D1D20F444763CEE71A4CFFF79F
:100BD0008FFFA369586A07B0F0BD019BE361002253
:100BE000B3425E60049222D09A680398A16A0244DC
:100BF0004FF080409A60436A581A8242DCD9CB1A7F
:100C00001344012B98BF821C4FF080430A445A635F
:100C1000D2E78B1801AFA262CDE90166C4E907777C
:100C200003910022436302230261C360B1E74FF0E6
:100C30008043DA60C0E700BFF8080020E106000842
:100C400061B1084A10B4926944680346C2E90034AD
:100C50000420226010BC5A60FFF76ABF4FF0FF30DB
:100C6000704700BFF80800200000000000000000EE
:100C7000EFF30983203383F30988002383F311887A
:100C8000704700BF000000000000000000000000EE
:100C90000148FFF7E5BC00BF9809002000000000F4
:100CA0000148FFF70DBD00BF9809002000000000BB
:100CB00008B5202383F31188FFF7F2FF4FF47A7110
:100CC0000820FFF735FFFFF7E3FF002383F31188C8
:100CD00008BD00BF00000000000000000000000090
:100CE00008B5074B074A9B69074C9A614FF40055BA
:100CF0002E462683FFF7DCFF6583FFF7D9FFF8E771
:100D0000F8080020D41A0008000C0240000000007F
:100D100068B50546202383F31188FFF7C1FF0D480E
:100D2000D0E900364942751B0D40AA1A9A4209D3F0
:100D3000964207D34260FFF7ABFF002383F311888D
:100D4000284668BDFFF7A4FF0025002383F3118820
:100D5000284668BD080B00200000000000000000CD
:100D60002DE9F04F85B0CDE90232C76904464FF056
:100D7000200989F31188FFF793FF8AB3039D0E467C
:100D80004FF0000A8846A368D4E904209D428CBF36
:100D9000A6682E46121AB24240D82BD24146A6EB84
:100DA000020B0192FFF7A8FA019AE06808EB020132
:100DB0005A46FFF7A1FAA368E2689B1B5A44626196
:100DC000A3600FB12046B847FFF762FF8AF311888E
:100DD000AD1BB04489F31188FFF762FF002DD2D11B
:100DE000039DFFF755FF002383F31188284605B0C4
:100DF000BDE8F08F32464146FFF77EFAE368636153
:100E0000A3689B1BA360002EDBD102992046FFF74D
:100E100017FF0028B7D0039B5D1BE2E7324641462F
:100E2000FFF76AFA636933446361E9E70000000091
:100E30003030FFF795BF00BF000000000000000049
:100E400030304FF0FF33FFF78BBF00BF00000000D2
:100E50002DE9F041202305468846174683F3118883
:100E6000FFF71EFF03E0FFF7EBFE041E1EDBAE687C
:100E700039462846002EF6D06A69AB68511C013B02
:100E80006961AB6082F80080D5E904329A4224BFE0
:100E9000EB686B61EB6903B19847FFF7F9FE00203F
:100EA00080F3118804462046BDE8F081FFF7F0FE8C
:100EB00086F311882046BDE8F08100BF00000000E5
:100EC000C14BC2481A696FEAC2526FEAD2522DE989
:100ED00080481A611A69C2F308021A614FF0FF34A0
:100EE0001A695A695C61002259695A615969196A1B
:100EF00061F080511962196A01F080511962196A12
:100F0000596A5C62596A5A62596A196C41F0805197
:100F10001964196E41F080511966196E016841F427
:100F200080710160196F01F44071B1F5007F87B0E5
:100F300003D04FF4803119671A67DFF890C2A44DCF
:100F4000DCF80420A34FA44EA449A54C6023402004
:100F500022F40072CCF804204FF0800885F80633A4
:100F60004FF48072C5F8800128604FF4007085F856
:100F70000733C5F88081C5F8008085F80833C5F8C7
:100F800080212A6085F80933C5F8800128604FF474
:100F9000806085F80A33C5F8800128604FF40000AE
:100FA00085F81733C5F88001286085F8283338465E
:100FB000C5F884216A60FFF73BFA8A4B8A497B6750
:100FC0003046FFF735FA804B88491A6C646042F06E
:100FD00001021A641A6E246142F001021A661B6E45
:100FE0008A68DFF838C264614FF0804342F0010242
:100FF0008A604FF0FF3E0022012142F2CF0098624A
:10100000C3F82CE0A2609A61C4F824E05A63A2629B
:10101000DA60CCF804205A605961196003F59843EE
:1010200085F81C8373674FF08053C5F88031704991
:101030002B607048CCF8000004F11C03C4E90733AE
:101040006D486E4B0B6048606D4B246000200021A2
:10105000CCF80820CDE904010CF10C011420CCE9F6
:101060000311CCF81420986103F13C0C03F140000B
:1010700003F1240103F12805CDE90122C4F89020F1
:1010800003929A605A61DA62C3E900331C22C3E911
:101090000FC003F1100859629D6203F14401042559
:1010A0001A63584ACDF800E0C3F810805964DD6136
:1010B0005D631A629A636846FFF702FB6846FFF7B2
:1010C000CFFA013DF7D1009A4F4BD4F814E0C4F8A1
:1010D000902080224FF0FF3C00200021A263E266B6
:1010E000DFF83C81C4F8A0C00122C4E9104EC4F866
:1010F000B8C0C4F84880C4E92955C4E92F55C4E9EB
:101100001955C4E92C01C4E93201C4F89850C4F857
:101110009C50C4F8AC50C4F8C45084F8515084F8C2
:10112000522003F12808CEF8103003F12C0EC4E948
:101130001EC5C4E9168E6361C4F88050C4F860E02F
:101140004FF0200CC4F88450C4E92201A36184F854
:101150005020E5648CF3118862B62C4B2C4AD96878
:10116000DFF8C080DFF8C0E04FF6FF0001400A431F
:10117000DA60D8F80C20A06942F08072C8F80C2020
:10118000DEF80020102142F00102CEF800204830A5
:10119000D97783F822C0FFF793FA85F3118862B6F6
:1011A0001C4A5520134602F1F80103F8010B8B424B
:1011B000FBD14FF0200989F31188FFF771FD164B21
:1011C000D4F814C032E000BF003802400070004084
:1011D00000E100E0000800207C0800206105000814
:1011E000F80800200044004071050008002004E0D9
:1011F000080B0020110D000800000220980C0020B0
:10120000C8090020D10500082809002000ED00E0F1
:101210000003FA05100A0020840A0020100B0020A9
:10122000001B0008F0ED00E0001000E0824D834854
:10123000556702210025A2F8B810C2F8B0000121BC
:1012400003F12400DFF83082C2F8ACC0C2F8A43049
:10125000C2F8A010C2F8D41082F8BA10C2E933550F
:10126000C2F8B420C2F8A8409567C2F894804FF045
:10127000FF31CCF810004FF0000A03F14C0C4FF096
:10128000000B5033C2E93955C2E930C3C2E93CAB67
:10129000C2F8EC50C2F8C830C2F8E0106061FFF745
:1012A000E7FBFFF7F5FC85F3118889F31188FFF759
:1012B000F7FC3B7A012B11D1614B624A196C41F466
:1012C00000311964196E41F4003119661B6EC0219A
:1012D000402382F82613C2F8843153605A495B4890
:1012E000FFF776FB02233B72FFF7D2FC002383F368
:1012F000118840F282310420FFF7CAF840F28231AF
:101300000820FFF7C5F8202383F31188FFF7C8FCF6
:10131000337A012B12D14A4B4A4A196C41F400210D
:101320001964196E41F4002119661B6EC0214FF437
:10133000801382F83413C2F884315360444945481D
:101340000227FFF745FB3772FFF7A2FC002383F368
:101350001188414D40F202410120FFF799F840F217
:1013600002413846FFF794F82B4605F5B471552233
:1013700003F8012B8B42FBD1202383F31188FFF765
:101380008FFC364B36496269C5F8E4103548C5F81C
:1013900020010226012103F12400A5F8286185F827
:1013A0002A1100268021C5F80481C5F81C21C5F842
:1013B0001431C5F81011C5F84411C5E94F6603F1A1
:1013C0004C01C5F824515033C5F81841C5F8E86000
:1013D0004FF0000810614FF000094FF0FF32C5E9EF
:1013E0004D33C5F83011C5F85021C5E95566C5E93A
:1013F0005889C5F85C616061FFF73AFBFFF748FC6C
:1014000086F31188184C194D4FF0FF3241212046C8
:10141000FFF71EFD29464FF0FF3305222046FFF758
:101420009FFC134913484FF0FF330922FFF798FC44
:10143000FFF73EFCE8E700BFE1070008DC1A000800
:101440000038024000E100E0A41B00080008002072
:10145000981B00087C080020300B0020140C002092
:10146000E10C0008E41A000830080020EC1A00081B
:10147000F41A0008AC080020D102000800000000A7
:101480003030FFF7E5BC00BF0000000000000000A6
:1014900030304FF0FF32FFF7DBBC00BF0000000030
:1014A0002DE9F04F85B0CDE90232C76904464FF00F
:1014B000200989F31188FFF7F3FB002A31D0039D3F
:1014C0000E464FF0000A8846A368A16922699D4232
:1014D0008CBFA6682E46521AB24240D82BD2404644
:1014E000A6EB020B0192FEF707FF019AE16808EBF9
:1014F00002005A46FEF700FFA368E2689B1B5A44AD
:10150000A261A3600FB12046B847FFF7C1FB8AF381
:101510001188AD1BB04489F31188FFF7C1FB002D82
:10152000D2D1039DFFF7B4FB002383F31188284633
:1015300005B0BDE8F08F32464046FEF7DDFEE368B9
:10154000A361A3689B1BA360002EDBD102992046F8
:10155000FFF776FB0028B7D0039B5D1BE2E732461E
:101560004046FEF7C9FEA3693344A361E9E700BF23
:101570000C30FFF795BF00BF000000000000000026
:101580000C304FF0FF33FFF78BBF00BF00000000AF
:10159000F8B505460F46202383F31188FFF780FB3B
:1015A00003E0FFF74DFB041E1CDBAE6839462846FE
:1015B000002EF6D0A969AB6828694A1C013B82421B
:1015C000AB60AA6128BFEB680C7828BFAB61EB6900
:1015D0000BB128469847FFF75BFB002383F3118884
:1015E0002046F8BDFFF754FB86F311882046F8BD6E
:1015F0000C30FFF7CDBF00BF00000000000000006E
:101600000C304FF0FF31FFF7C3BF00BF00000000F8
:1016100038B50246202383F31188FFF741FB0F4BB7
:101620009C69A06A626204F12805A84206D003689A
:10163000A362FFF78DF8A06AA842F8D194F822308F
:101640003BB994F821309B0703D1D4E904321361EC
:101650005A61BDE838400F20FFF74ABAF808002069
:1016600038B5144C2168A5690B68236001225C60C1
:1016700081F820200022A86885F82020A16100E0E0
:101680001B689A689042FBD35868D4F89C20686025
:101690002B604831056001325D6005F14800C4F8F7
:1016A0009C20FEF7BDFFA0692946BDE83840FEF743
:1016B00007BE00BFF8080020000000000000000086
:1016C0007E4A7F481369DFF84CC240F2FF110B439A
:1016D0002DE9F041136113697A4EDFF83CE27A4F4D
:1016E0007A4D7B4C23F4FF7323F0010313611369DC
:1016F000136B0B431363136D0B4313656FF4A84116
:101700000023D2F85080436081604FF6FF71C0F82B
:101710000CE0DFF808824161DFF804E207624FF471
:101720001077C0F82480C0F800E077604FF0FF30F9
:10173000DFF8F0E1B0604FF08067C6F80CE071614F
:101740004FF0400E3762634FC6F824E0376006F171
:10175000A25606F5443606F5AA766B60A860EE60E0
:101760004FF0C04669612E625B4E6E625B4E2E602A
:101770005B4D6360A060E56040F6FF756561594FA1
:10178000594E5A4D236263622560CCF80430584D9F
:10179000CCF8080004F5A054CCF80C30CCF81410A8
:1017A000CCF82030CCF82430CCF800E0ACF5D03CBC
:1017B0007B60B860FB6079613B627B623B60736019
:1017C0004FF08057B060F3607161336273623360D1
:1017D0004FF440466B60A860EB6069612B626B62FE
:1017E0002B606360A060E3606161236263622360D9
:1017F0001764CCF80060136843F0010313601368AA
:101800009E07FCD591682D4B21F0030191609A68E9
:1018100012F00C02FBD11868284900F0F90018609A
:101820009A601A6842F480321A600B689D03FCD5F6
:101830004A6F224B42F001024A675A6F9407FCD567
:101840002C4A5A601A682C4942F080721A604B6820
:101850005804FCD5194B1A689201FCD52749284A2F
:1018600099601268274B9A421ED0274B40F20572AE
:101870001A60254A136803F00F03052BFAD10F4BAA
:101880009A6842F002029A609A6802F00C02082AF2
:10189000FAD15A6C42F480425A645A6E42F4804241
:1018A0005A665B6EBDE8F081184A194B12689A427D
:1018B000DBD1154B40F205121A60DAE7003802401E
:1018C000000002400004024000005655000802409B
:1018D000000C024080200800000606000180200263
:1018E00055505500001402400018024000010055F8
:1018F000001C0240085440070070004000948838E3
:10190000002004E011640020003C024000ED00E0F3
:1019100041C20F41001002405400014000AA0A00D9
:1019200000AAA02A15455155000000000000000043
:1019300008B5FEF765FE0348FEF75AFFBDE808400C
:10194000FEF71EBE7C080020000000000000000022
:1019500008B5FEF755FE0348FEF74AFFBDE808400C
:10196000FEF70EBE0008002000000000000000008E
:101970002DE9F84F4FF08045FEF742FE2B69EA68EB
:101980001340DAB2D2439B072A6103D4BDE8F84F73
:10199000FEF7F6BD202383F31188264EFEF798FE4E
:1019A000F469686AB36AA268A0EB03094A4506F1C4
:1019B0001C0A98BF002725D84FF0200800E0B36A22
:1019C0002168D4F80CB013445145B362C1F804A0A7
:1019D000F161E76008BFEF60A9EB0209FEF768FE5E
:1019E00087F311882069D84788F31188FEF770FEC5
:1019F000F469A2689145E2D2686AB36AA0EB030970
:101A00009145D9D254450BD0A268B062121A134442
:101A10004FF08042022B2CBFC0180230A3605063ED
:101A2000FEF746FE002383F31188BDE8F84FFEF76A
:101A3000A7BD00BFF8080020000000000000000063
:101A4000F0B4144F144D1548154B164907F1700C9E
:101A50000026984211D904391A4651F8044F42F829
:101A6000044B9042F9D8421ED21A22F003020432EB
:101A700013449D4203D943F8046B9D42FBD867454C
:101A800005D0D7E90413D7E906051037E1E7F0BC24
:101A9000704700BF181B0008980C0020980C00200D
:101AA000980C0020D81B0008000000000000000077
:101AB000FEE700BF00000000000000000000000082
:101AC000704700BF000000000000000000000000A0
:041AD000704700BF9C
:101AD400626C696E6B65720069646C65000000007D
:101AE4006E6F6E616D6500004B756E616C0A00006F
:101AF400476574746F627974650A00006D61696E7C
:101B040000164130040460080C1014181C20212213
:101B140000000000D81B0008980C0020980C00203E
:101B2400980C0020D81B00080000002000000020B2
:101B340000000020D81B000800C0012000C00120C4
:101B440000C00120D81B00080000000000000000B5
:101B540000000000D81B0008000000100000001066
:101B640000000010D81B0008004002400040024062
:101B740000400240D81B00080000000000000000E4
:101B840000000000D81B0008000000000000000056
:101B9400000000008025000000000000000000009C
:101BA40000C201000000000000000000000000006E
:101BB400410E000881150008911400080116000860
:101BC40081140008F1150008310E00087115000891
:041BD400610A00089A
:04000005080002B934
:00000001FF
